S00B00006173702E73726563D5
S31580000000971105009381018017950000130545A17E
S3158000001003210500179500001305C5A00C412E91FC
S315800000201385C18797550500938545DC6377B500B1
S31580000030232005001105E36DB5FE17950000130515
S31580000040A5A1970505009385E5FB17960000130685
S31580000050A6A0637AC5008322050023A0550011055A
S315800000609105E36AC5FE6F30C0141D719777000055
S315800000709387C7693EC297770000938767693EC4B6
S315800000809777000093870769CAC886CEA2CCA6CA8E
S31580000090CEC6D2C4D6C2DAC05EDE62DC66DA6AD882
S315800000A02A893EC6EF40F042634705221307F9FFCF
S315800000B0931727001418B69783AB47FD975405000E
S315800000C09384C4A6096C0144175B0500130B4BA6E9
S315800000D09779000093890947977A0000938ACA64C2
S315800000E0BA94130A7002177D0000130DAD6B130CC2
S315800000F00C71977C0000938C2C6605045E87A28623
S315800001004A86D6851545EF10201002C08247032700
S315800001100B0063F8E700824785073EC08247E3EC21
S31580000120E7FE83C70400238004009387D7FA93F7FA
S31580000130F70FE364FAFC8A07CE979C43CE978287B3
S31580000140EF505052635005022A87977600009386B7
S31580000150E6671306D00B977500009385255C0D45E1
S31580000160EF1040204A86977500009385A564154553
S31580000170EF10800902904A86977500009385C55CCA
S315800001801945EF106008EF30305F634705128947E5
S315800001903EC897770000938767583ECC0C08930734
S315800001A0200A01453ECE66D0EF10102A4A86977502
S315800001B000009385A55A1945EF100005EF400018F9
S315800001C0E35D05F22A8797760000938666591306C3
S315800001D0500A97750000938565540D45EF10801879
S315800001E029BF4A86977500009385C55A1945EF1031
S315800001F0A001EF405026E35205F02A87977600004B
S31580000200938686591306100B9775000093850551C2
S315800002100D45EF102015D5B519454A86977500000E
S3158000022093850556EF00507E6285EF40A07AE356AF
S3158000023005EC2A87977600009386C6541306D00A63
S31580000240977500009385854D0D45EF10A01175B506
S315800002504A86EA851945EF00307BEF409027E35EBA
S3158000026005E82A8797760000938606541306500B76
S31580000270977500009385854A0D45EF10A00EB5BD94
S3158000028019454A86977500009385454EEF00D077CD
S315800002906285EF40E013E35205E62A8797760000F1
S315800002A09386064D1306900A977500009385054739
S315800002B00D45EF10200B91B52A879776000093861F
S315800002C0E6481306100A97750000938525450D4567
S315800002D0EF1040096DBD2A87977600009386C64C3D
S315800002E01306700997750000938545430D45EF10F9
S315800002F060076DBB397122DC26DAAA862E862A84AF
S31580000300AE841545977500009385054D06DEEF0092
S31580000310B06F175705001307278102C6B2471843E7
S3158000032063F8E700B24785073EC6B247E3ECE7FECF
S315800003309317040163C70700F2506254D2542161B7
S315800003408280268697750000938505401945EF00C3
S31580000350B06BEF307042634A050289473EC8977793
S3158000036000009387A73B3ECC9307700D3ECE0C08CA
S31580000370977700009387473E01453ED0EF10D00C1B
S31580000380F2506254D254216182802A879776000087
S315800003909386C63B1306600D9775000093850538D6
S315800003A00D45EF00307C55BF79712A8622D497752A
S315800003B000009385A5442A84154506D626D24AD0C0
S315800003C0EF009064EF50904685476309F500977576
S315800003D00000938565451145EF001063EF50B047E7
S315800003E085476309F500977500009385E5461145B5
S315800003F0EF009061EF507044AA84EF5010452A892F
S31580000400EF4090182A872686CA86977500009385BE
S31580000410A5471945EF00505F2285EF501072AA84D8
S315800004202285EF503075AA862686977500009385BB
S3158000043025481945EF00505D2285EF50B0730A8438
S3158000044015E12285EF50901B634205060245A165A2
S31580000450EF40C07463400508B2502254925402594A
S315800004604561828097750000938545461545EF0066
S31580000470B059EF2010566343050889473EC09777E9
S3158000048000009387A7290A843EC49307600F3EC65F
S31580000490A285977700009387272C01453EC8EF10E9
S315800004A0A07A2285EF509015E35205FA2A87977530
S315800004B000009385A5260D45977600009386064411
S315800004C01306900FEF00106A0245A165EF40006D9C
S315800004D0E35405F82A8797760000938666431306C9
S315800004E0A00F97750000938565230D45EF009067F3
S315800004F0B250225492540259456182802A87977657
S3158000050000009386E63E1306500F9775000093858C
S31580000510E5200D45EF0010658DB74111254506C6CE
S31580000520EF507000634F05002945EF50C07F634D43
S3158000053005022D45EF50207F634B0504B2404101F3
S3158000054082802A87977600009386463E0D4513065D
S315800005507010977500009385651CEF00B060294583
S31580000560EF50607CE35705FC2A87977600009386D8
S31580000570663D0D4513068010977500009385051A14
S31580000580EF00505E2D45EF50007AE35905FAB240F0
S315800005902A87977600009386663C13069010977597
S315800005A000009385A5170D4541016F00B05B411191
S315800005B0254506C6EF502077634F05002945EF5045
S315800005C08076634D05022D45EF50E075634B05043B
S315800005D0B240410182802A8797760000938606354D
S315800005E00D45130640119775000093852513EF007E
S315800005F070572945EF502073E35705FC2A87977675
S315800006000000938626340D45130650119775000019
S315800006109385C510EF0010552D45EF50C070E359F6
S3158000062005FAB2402A87977600009386263313060A
S315800006306011977500009385650E0D4541016F0029
S3158000064070521D71A2CC85452A841305F00786CE8B
S31580000650A6CACAC8CEC6D2C4D6C2EF10E07C634C46
S31580000660056E228697750000938545341545EF0003
S31580000670B0390545EF10D00E2A84634B0564930587
S3158000068000510545EF107047634D0566B7470F006B
S3158000069093870724080817470500232BF748EF4060
S315800006A07056634B056802C617470500130747480F
S315800006B0B247184363F8E700B24785073EC6B2479C
S315800006C0E3ECE7FE4808EF40F05363440570D247F9
S315800006D0424709453387E740B787D717938707404F
S315800006E0B3D7E70213D727009746050023A2F6441F
S315800006F09747050023AAE742EF306067634B056A98
S315800007000D45EF30C066634705681145EF302066BA
S3158000071063430566056A854409499779000093898C
S31580000720A937177400001304E4EB130A8A38974A32
S315800007300500938AAA3F0546930571000545EF108B
S3158000074050246344050A0347710093069004930777
S31580000750F7FC93F7F70F63ECF6028A07A2979C43A0
S31580000760A29782872808EF40304F63430578680850
S31580000770EF40904E634F0574F246624697750000CF
S315800007809385056B1545EF003028034771008D472B
S315800007906306F70093071005E31FF7F897750000C7
S315800007A09385856E1545EF003026EF2090226342B3
S315800007B0056489473ED097770000938727F63ED415
S315800007C0930750213ED60C10977700009387C7F881
S315800007D001453ED8EF104047F6406644D644464928
S315800007E0B649264A964A256182802A87CE8613068E
S315800007F0B01797750000938565F20D45EF0090362A
S3158000080099B78D44114905BF89440D492DB7854453
S31580000810094915B7977500009385054A19452686B7
S31580000820EF00901E85454A85EF40A0256342055E10
S3158000083003477100A9BF19452686977500009385E1
S31580000840253DEF00701C4A85EF301044E35205FECB
S315800008502A87977600009386A63C1306701B9775A9
S3158000086000009385A5EB0D45EF00D02F034771005F
S3158000087039BF85451305F007EF10005BE35A05FA8B
S315800008802A87977600009386E60E1306801F977553
S3158000089000009385A5E80D45EF00D02C0347710035
S315800008A0FDB519452686977500009385E53CEF00D2
S315800008B0B0154A85EF30B077E35C05F62A879776E0
S315800008C000009386663C1306601C9775000093852E
S315800008D0E5E40D45EF001029034771004DBD19452C
S315800008E02686977500009385E521EF00F0114A85ED
S315800008F0EF304073E35E05F22A8797760000938691
S3158000090066211306001A97750000938525E10D452B
S31580000910EF005025034771009DBD1945977500006E
S315800009209385853FEF00500E2545EF504037634253
S3158000093005502945EF50A036634D05522D45EF50A1
S315800009400036E35705EE2A87977600009386864120
S315800009501306801D97750000938545DC0D45EF00D5
S3158000096070200347710025B585451305F003EF1008
S31580000970A04BE35F05EA2A87977600009386064DAB
S315800009801306C01F97750000938545D90D45EF0066
S31580000990701D03477100E5BB1945268697750000D3
S315800009A09385852FEF0050064A85EF305078E351C6
S315800009B005E82A87977600009386062F1306A01CE3
S315800009C097750000938585D50D45EF00B0190347CF
S315800009D0710075BB19452686977500009385C527D6
S315800009E0EF0090024A85EF30304FE35305E42A87C3
S315800009F097760000938646271306201C977500007D
S31580000A009385C5D10D45EF00F0150347710041B3BD
S31580000A1019459775000093856536EF00E07E05459C
S31580000A20EF407042E35605E02A879776000093866A
S31580000A30A6351306C01D97750000938525CE0D45F6
S31580000A40EF0050120347710099B31945977500005E
S31580000A509385C536EF00407BD2850545EF40F06A29
S31580000A60E35805DC2A879776000093866636130658
S31580000A70401E97750000938565CA0D45EF00900E60
S31580000A800347710029B3194526869775000093851B
S31580000A90E502EF0060774A85EF30602DE35A05D88E
S31580000AA02A879776000093866602130650199775F3
S31580000AB000009385A5C60D45EF00D00A0347710057
S31580000AC0F9B1977500009385252219452686EF0092
S31580000AD0A07389454A85EF30D07AE35B05D42A87AF
S31580000AE0977600009386C6211306201D9775000011
S31580000AF09385C5C20D45EF00F0060347710041B9E5
S31580000B00194526869775000093858512EF00C06F7C
S31580000B104A85EF307031634D0532AA8626869775F1
S31580000B2000009385253B1545EF00006E0347710055
S31580000B30B9B9B3879A00A38FE7FEA9B99775000064
S31580000B409385850919452686EF00006C2C004A8519
S31580000B50EF30606D634E0534A24626869775000099
S31580000B60938585351545EF00206A0347710005B1E9
S31580000B7019459775000093856522EF00E068054565
S31580000B80EF40F03AE35605CA2A87977600009386A7
S31580000B90A6211306001E97750000938525B80D457E
S31580000BA0EF00407C03477100DDB61945977500005C
S31580000BB093858523EF0040650545EF405072E359E4
S31580000BC005C62A87977600009386C6221306801E5E
S31580000BD097750000938585B40D45EF00A07803478F
S31580000BE0710075B61945268697750000938505EFC1
S31580000BF0EF0080614A85EF30602F634A0528AA8618
S31580000C002686977500009385A5291545EF00C05F58
S31580000C1003477100ADBE977500009385A5F0194511
S31580000C202686EF00605EA5454A85EF30C050E351C9
S31580000C3005C02A8797760000938686F01306401AA9
S31580000C4097750000938585AD0D45EF00A07103472C
S31580000C50710035BE97750000938585F01945268607
S31580000C60EF00805AA9454A85EF30E04CE35205BC37
S31580000C702A8797760000938666F01306801A977502
S31580000C8000009385A5A90D45EF00C06D034771004F
S31580000C90FDBC97750000938565F019452686EF00A3
S31580000CA0A056AD454A85EF300049E35305B82A87FB
S31580000CB097760000938646F01306C01A9775000053
S31580000CC09385C5A50D45EF00E06903477100C1B462
S31580000CD093178501E187130770FDE382E79AEF009A
S31580000CE0406D2A8697750000938585CE0D4593566F
S31580000CF08440192B930500510545EF100060E3579A
S31580000D0005982A8797760000938606CF0D451306A9
S31580000D10B01397750000938565A0EF00A064B74770
S31580000D200F00938707240808174705002322F7E05A
S31580000D30EF40406DE35905962A87977600009386A3
S31580000D4026D013068016977500009385259D0D4540
S31580000D50EF00406189BA2A8797760000938686C11C
S31580000D601306B012977500009385459B0D45EF00DD
S31580000D70605F6FF01F8F2A87977600009386C6D0B4
S31580000D801306501797750000938545990D45EF001A
S31580000D90605D49B22A87977600009386E6CD130672
S31580000DA0401797750000938565970D45EF00805B2A
S31580000DB0A9BA2A8797760000938606CB1306301742
S31580000DC097750000938585950D45EF00A0596FF0C6
S31580000DD03F932A87977600009386C6C71306A01688
S31580000DE097750000938585930D45EF00A0576FF0AA
S31580000DF01F8E2A8797760000938686AF130640213A
S31580000E0097750000938585910D45EF00A05555B2E5
S31580000E102A87977600009386A6EB1306E01C9775C3
S31580000E2000009385A58F0D45EF00C05303477100E1
S31580000E30B9BA2A87977600009386C6EF1306601D97
S31580000E40977500009385858D0D45EF00A051D5B42B
S31580000E502A87977600009386A6DE1306B01B9775C1
S31580000E6000009385A58B0D45F529034771006FF02A
S31580000E701F922A8797760000938646ED1306701D8B
S31580000E8097750000938585890D45E92945BC2A8794
S31580000E9097760000938686C513069019977500008D
S31580000EA09385C5870D457D29034771006FF03F8E79
S31580000EB02A87977600009386A6D31306001B97751C
S31580000EC000009385A5850D457129034771006FF054
S31580000ED01F8C2A8797760000938646F41306E01EB9
S31580000EE097750000938585830D45AD296FF0DF8862
S31580000EF02A8797760000938626F11306D01E97756B
S31580000F0000009385A5810D45B1296FF05F86B37882
S31580000F10B50239715AD03E8B22DC4AD84ED652D48D
S31580000F2056D206DE26DA5ECEBA8A4289368A0544EB
S31580000F30930941002D48B357B502B29803C70800FC
S31580000F402302E1006361B5020504B38689003E850C
S31580000F5033F7B702329703470700B3D7B702A38F99
S31580000F60E6FEE31104FF638B0A04B3374001330ABC
S31580000F70FA4063050B001305D00202996377440596
S31580000F80930B000263190B04A28485045E85029983
S31580000F90E3ED44FF639B0A024E940345F4FF7D1400
S31580000FA00299E39C89FEF2506254D2544259B25956
S31580000FB0225A925A025BF24B21618280E37E44FD83
S31580000FC0930B0002E3020BFC39A0E3170BFC13051D
S31580000FD0D0020299D1B7930B00037DB7797122D4E1
S31580000FE026D24AD04ECE52CC56CA5AC85EC662C4A3
S31580000FF066C206D66AC02A8C2E89B2841304500231
S31580001000130B0003A54C930AC006130A4006977B70
S315800010100000938BABED9309300703450C0001C9A3
S3158000102063058502050C829403450C0075F9B25060
S31580001030225492540259F249624AD24A424BB24BE6
S31580001040224C924C024D4561828003461C00630D02
S31580001050660D090C8147130706FD1377F70F814646
S3158000106063E2EC0213972600BA968606050CB296C2
S315800010700346FCFF938606FD130706FD1377F70FDD
S31580001080E3F2ECFE63075603630A46036368CA0409
S31580001090630F860A637FC40213078005630DE60A21
S315800010A093073006E31BF6F603450900110982947F
S315800010B0ADB703460C00050CE31A46FD032509006F
S315800010C011096346050A268801475E86A94581354A
S315800010D0A9B713361600330CCC4081B7630B36059F
S315800010E063FFC90013075007631BE6020325090047
S315800010F0268801475E86A9451109113D39BF130728
S315800011000007E31CE6F003250900268801471776C9
S315800011100000130666DEC1451109D53BFDBD1307E8
S315800011208007E302E6FED5BD03462C0085470D0CFD
S315800011301DB7032D0900110903450D00050DE30EAA
S3158000114005EC829403450D00050D65FDF9B5130583
S3158000115050028294D9B5032509002688014717765F
S3158000116000001306A6DAC145110955337DB533054E
S31580001170A040268805475E86A945513B79BD1C411E
S31580001180411122C426C206C605472A84AE84638AD4
S31580001190E70009476386E702B24022449244410150
S315800011A08280177500001305A5D7EF00701D0844CF
S315800011B09305C4002244B24026869244410139BD3B
S315800011C0177500001305C5D5EF00901B93058400A5
S315800011D02244B24026869244177500001305C5D472
S315800011E04101EDBB011122CC2AC62E842E861775AD
S315800011F00000130565D56C0006CECD3329450294D3
S31580001200F2406244056182801D7106DE22DC26DAA8
S31580001210B2C4BECAC2CCC6CE8547B6C6BAC83EC858
S3158000122083C70500130E81042ECC72C605489548E7
S31580001230130350022546930FC006130F4006930EE4
S315800012403007930450071304800793000007930325
S3158000125080059302300689CB63E80801638E6700B8
S31580001260850583C70500EDFB0C08EF00F01DF250E5
S315800012706254D2542561828083C615001387250067
S31580001280938706FD93F7F70F636BF6000507834692
S31580001290F7FF938706FD93F7F70FE379F6FE6385ED
S315800012A0F6076385E605636BDF0063817604638DED
S315800012B05600C5C683470700BA8571BF6386D601C7
S315800012C063E2DE02E39816FE83260E00931728005B
S315800012D00C18AE9723A4D7FE83470700110E050886
S315800012E0BA8595BF63849600E39686FC83260E00B6
S315800012F0BA85931728001818BA9723A4D7FE110E1B
S3158000130083C70500050881BF83470700930517003B
S315800013106388E703637AFF006386D70163EEFE0086
S31580001320639917002E874DB7638C7700E38C57FE41
S3158000133085CB8347170005B763849700E39B87FEB9
S3158000134083260E00931728001818BA9723A4D7FE71
S31580001350110E83C705000508FDBD8347F7FF7D177E
S31580001360BA85D5BD397152D42A8A3A8506DE22DC01
S3158000137026DA4AD84ED6AE843289B6893A8415287A
S3158000138085472AC63EC021848A8552859777000084
S31580001390938707BD22C84ECA4ACC26CE3EC4EF00EC
S315800013A0B00AF2506254D2544259B259225A21613B
S315800013B082801305A5031375F50F9307A00363EACF
S315800013C0A700977700009387A7BC0A053E9508413A
S315800013D0828017750000130565CA8280011106CECA
S315800013E022CC26CA4AC84EC6AE89EF1070131305A2
S315800013F00002EF10F01271442549F154B3D78940A9
S31580001400BD8B7114138507036354F9001385770325
S31580001410EF101011E31494FE6244F240D244424924
S31580001420B249294505616F10B00F9737050093873C
S31580001430677017770000130767D098C323A4070047
S315800014408280797122D41304F5FF120417350500C2
S315800014501305456E2A94184006D64CC0144308449A
S31580001460B9CEB7270191D0470C474D8ED0C790474C
S315800014700C474D8E90C71047CC5F1346F6FF6D8E96
S31580001480D0DF905F0328870085453366060190DFAD
S31580001490974705009387C7819C437166130606208C
S315800014A0B3D7C702FD179CCEC16785079CC6CCC63D
S315800014B00CC419C9096513050571EF10606A228588
S315800014C0B2502254456182804843EF40304B7DD1F3
S315800014D089473EC097770000938707C73EC4930726
S315800014E0C00B3EC68A8597770000938767C80145FB
S315800014F03EC8992FC1B71C45411122C406C62A840D
S3158000150099E723240400B2402244410182801C4191
S31580001510C843EF40103CB2402324040022444101DA
S31580001520828041117D1522C44AC0131445001739A3
S3158000153005001309296026C2B3048900904006C6B7
S315800015401C42D84B93864701098B01CFDC43DCC410
S3158000155063C60702C840EF00B06A9C409C439386EE
S3158000156047019842944B9377170099C3858A99EAE5
S31580001570B240224492440249410182801C429386B1
S315800015804701C5B74A9448402244B2409244024932
S3158000159041016F00505F1C419C4398436354070090
S315800015A0014582808CC3054582805C4563C80700FF
S315800015B07D5793F7F70F58C53E858280FD57EDBF5F
S315800015C08547638DF50089476399F5001C419843EB
S315800015D01C4B93E727001CCB828082801C4198435A
S315800015E01C4B93E717001CCB82808547638CF500E4
S315800015F089476398F5001C4198431C4BF59B1CCB8F
S31580001600828082801C4198431C4BF99B1CCB828034
S31580001610FD1593971500AE9717770000130707B24D
S315800016208A07BA979843411108C31C43E3CF07FE44
S31580001630973705009387C7679C4371671307072011
S31580001640B3D7E7023EC6B2471387F7FF3AC6E5FF30
S3158000165041018280B7270191D84737060300B70634
S31580001660FDFF518FD8C79847FD167D15518F98C7B6
S31580001670D85F758FD8DF945F131715002A97D18EA0
S3158000168094DF973705009387A7629C43F16693861C
S315800016900620B3D7D70217750000130525AA0A07B7
S315800016A02A9718438546096513050571FD171CCFD2
S315800016B014C754C76F10C04A37071040B7870091C8
S315800016C0110798C33707060098C79847C166558F94
S315800016D098C79843B70600C0FD16758F98C3828059
S315800016E081458280AA882E85B28536867300000061
S315800016F082802D476316E50678429306D005032837
S3158000170086028148630BD70619719307F10393F715
S3158000171007FC98C3814F23A2F701032EC60223A498
S31580001720070123A617010323060323A8C701814EB9
S3158000173023AAD70123AC6700814323AE77000F002D
S31580001740F00F173705001307E7431CC38148232290
S315800017501701984313854500DC4318D609618280BA
S315800017609316150013E71600973605009386864173
S315800017709357F50198C2DCC201A09316180013E7AF
S315800017801600973605009386E63F9357F80198C270
S31580001790DCC201A093080004054597750000938577
S315800017A0259E6D46730000007D5582809C41238076
S315800017B0A7009C4185079CC1828097370500938747
S315800017C0E733984393870188BA9793061700238057
S315800017D0A700173705002323D732A9476308F500EA
S315800017E0930700046384F6000145828041111386C5
S315800017F0018885451305000406C6ED35B240973746
S31580001800050023AD072E0145410182804D712320BD
S31580001810A113370D00409307FDFF23248114232253
S3158000182091142320211523261114232E3113232CC2
S315800018304113232A5113232861132326711323244A
S31580001840811323229113232EB1112A89AE843284E7
S3158000185036C43EC60345040093075002630EF50066
S3158000186031C99309500211A031C5A6850504029994
S3158000187003450400E31A35FF83461400930A1400D7
S315800018805687130B0002FD597D5A81451305500575
S3158000189025489387D6FD93F7F70F130417006368DF
S315800018A0F524177600001306668F8A07B2979C4345
S315800018B0B29782878320C114032481148324411420
S315800018C0032901148329C113032A8113832A41130F
S315800018D0032B0113832BC112032C8112832C4112FB
S315800018E0032D0112832DC11171618280368B83464F
S315800018F01700228779BFA14A02C2854763CEB70AFD
S31580001900A24793864700A247814D83AB070036C422
S31580001910568681465E85EE85EF5090012AC88147BE
S315800019202A8D6383B721130C4101854956868146EA
S315800019305E85EE85EF50803C56868146AA8BAE8DBD
S31580001940EF50007F92472320AC002A8D938C19009C
S31580001950110C6384B701E689D1BFE3FE5BFF63D8D0
S315800019604C017D1AA6855A850299E3CC4CFFB24775
S31580001970254ABE998A091C08BE9921A003AD090093
S31580001980F119130570056364AA0113050003A68582
S315800019906A9502997C00E393F9FE6DBD9347FAFF41
S315800019A0FD8783461700337AFA002287DDB502C2A7
S315800019B08547C14AE3D6B7F4A2479D07E19B1387C3
S315800019C087003AC483AB070083AD470091B70346CF
S315800019D01700938906FD2287930706FDB286636109
S315800019E0F80293972900BE9905078609B29903469E
S315800019F00700938909FD930706FDB286E373F8FE17
S31580001A00E3590AE84E8AFD5969B5A247A6858843F7
S31580001A10938C4700029966C435BDA24783AA070006
S31580001A20938C470063870A12635B400F9307D0024B
S31580001A306319FB0C03C50A0005C17D5B63C50900FC
S31580001A40FD1963896901A685850A029903C50A007D
S31580001A507D1A6DF5635940017D1AA685130500022E
S31580001A600299E31B0AFE66C4F5B3A94A02C271B5A0
S31580001A70A685130550020299F1BBA247834617003B
S31580001A80228783A9070091073EC49DBF834617001E
S31580001A9085052287FDBB854763C0B70A2247930722
S31580001AA04700D5C5832B07003EC493DDFB4163DF2A
S31580001AB00D00A6851305D002029933077041B3360F
S31580001AC0E000B307B041BA8BB38DD740A94A02C2B2
S31580001AD081B513050003A6850299A685130580079F
S31580001AE00299A247C14A02C29386470029BDA685AC
S31580001AF01305500202995684B1BB976A0000938AF7
S31580001B006A7FCE855685EF40B057330AAA40635820
S31580001B1040017D1AA6855A850299E31C0AFE03C5F3
S31580001B200A0031D17D5B19BFE3FF5BDF85478149C1
S31580001B30854CE3C847E325BDA2479D07E19B1387F4
S31580001B4087003AC483AB070083AD47008DB7224731
S31580001B5091BF635640019307D002E310FBFA976A60
S31580001B600000938A2A79130580027D5BC1BD4111ED
S31580001B70AA85814601461305D00506C6A53601A06D
S31580001B803971130341022ED232D436D62A869A86EA
S31580001B90170500001305A5C2814506CE3AD83EDA60
S31580001BA042DC46DE1AC69D31F240014521618280C3
S31580001BB05D711303810322D42AC632DC36DE2A8481
S31580001BC02E86170500001305A5BE6C009A8606D6DC
S31580001BD0BEC2BAC0C2C4C6C61ACE0D39B2472380A9
S31580001BE007003245B250018D22546161828079713D
S31580001BF085473EC03EC6A5473EC88A851767000012
S31580001C001307C76F8D47154506D63AC43ECA2D2899
S31580001C10B250456182809737050023AD07EE97372E
S31580001C20050023A707EE9737050023A107EE973710
S31580001C30050023AB07EC9737050023A507EC9737FC
S31580001C40050023AF07EA8280411106C622C47324A9
S31580001C504030856793870788F3B747309737050005
S31580001C60938707189043973705009387A7E99C4386
S31580001C7005473317A700D0C1F98FADCF17350500BB
S31580001C801305C5E8144183AF050003AF850083AE15
S31580001C90C50003AE050103A3450183A8850103A8FA
S31580001CA0C501939256009387018C969723A0F701DE
S31580001CB0D0C323A4E70123A6D70123A8C70123AA5B
S31580001CC0670023AC170123AE07018506FD4763E352
S31580001CD0D7049737050023ABD7E29737050093875C
S31580001CE067E39C43FD4663E3F60485079736050064
S31580001CF023A2F6E297370500938787E0884313454A
S31580001D00F5FF798D21ED73104430B24022440145B0
S31580001D10410182809737050023AA07DE97370500A1
S31580001D20938747DF9C43FD46E3F1F6FC9737050032
S31580001D30938787DD9C431441850717360500232941
S31580001D40D6DC9736050023A1F6DC97370500938706
S31580001D5027DB88431345F5FF798D55D52E85971555
S31580001D600000938525FCEFF08FC12945EF00507B5D
S31580001D7073104430B240224401454101828073266B
S31580001D804030856793870788F3B7473097370500D4
S31580001D90938747D89C43D1C717370500130747D782
S31580001DA018439386F7FF9387018C93155700AE9758
S31580001DB003AF070083AE470003AE870003A3C700C7
S31580001DC083A8070103A847018C4FDC4F2320E50138
S31580001DD02322D5015CCD9737050023ADD7D22324A6
S31580001DE0C5012326650023281501232A05010CCD6C
S31580001DF00507FD4763E2E7029737050023AAE7D088
S31580001E0097370500938747D088439737050023ADDA
S31580001E1007CE7310463082809737050023AA07CEF7
S31580001E20C5B7130570FDF5B793C5F5FF9737050060
S31580001E3023AAA7CC9737050023A4B7CC0145828077
S31580001E4073274030856793870788F3B7473097367F
S31580001E500500938626CC8C4297370500938747CA20
S31580001E6097360500938646CA90429C43973605006E
S31580001E70938646C9944293C7F7FF0CC150C114C5D7
S31580001E805CC5731047300145828041114AC006C641
S31580001E9022C426C2A9472A896317F500938401CCF8
S31580001EA09C48C18BA9EFEF30F07B63420508938491
S31580001EB001CCC0589C585D8C41C09C40D854DC4BAA
S31580001EC0BA97238027019840DC54004B850723A6C8
S31580001ED0F1CE6394870023A601CE9C5885071D8C7E
S31580001EE023A8F1CE13341400EF30507E63410504ED
S31580001EF02285B2402244924402494101828035457E
S31580001F0069372A84E34605FE59DD9C40C843EF3095
S31580001F1080152A84E35905F893178501E18713070D
S31580001F20D0FCE387E7FC1307F0FCE383E7FC8547F7
S31580001F3023A6F1CC6D546DBFC840CA85EFF0AFE5DE
S31580001F4045F5C8408545EFF0AFE785BF938701CC5F
S31580001F50176700001307875498C323A4070082805D
S31580001F60411126C206C622C44AC0AA84EF40A00EEA
S31580001F7055E185476399F408EF30D07B63470508C0
S31580001F80138901CC0324890011CC130470FDEF3032
S31580001F90D07F634C05062285B24022449244024992
S31580001FA0410182809307105123A8F1CC23AA01CC4A
S31580001FB023AC01CC23AE01CC238001CE23A201CE5B
S31580001FC023A401CE23A601CE23A801CE23AA01CE27
S31580001FD0EF30506963470502CA850545EFF06FC645
S31580001FE0894523A2A1CCEFF0AFDD23A491CC23A613
S31580001FF001CCEF30B06DE35C05F823A691CC6D542F
S3158000200079B76D5469B7395479B7854723A6F1CC2A
S315800020106D5451B71D5441B741114AC006C622C4FA
S3158000202026C22A89EF40200351E58547631DF906BC
S31580002030EF305070634B0506138401CC1C44930427
S3158000204070FD81EFEF30707463410506B240224423
S3158000205026850249924441018280EF30B060AA848D
S315800020604840EFF04FC923A401CCEF30306663447B
S31580002070050013D9F4011C40C843EF30A0211C4051
S31580002080634B05008843EF30E020634905008144B7
S31580002090E30A09FA21A08843EF30C01F854723A6AB
S315800020A0F1CCED5445B7B95455B7854723A6F1CC45
S315800020B0ED5469BF9D5459BF011126CA4AC84EC600
S315800020C006CE22CC52C4AA84AE893289EF30B0784B
S315800020D055E18547639EF408138A01CC83278A00DD
S315800020E0C1CF0325CA0041ED63080902014481C8B6
S315800020F083270A00C843EF20107763470502B3871A
S31580002100890003C507005133AA84634E050205047E
S31580002110E31F89FC31C12285F2406244D2444249A0
S31580002120B249224A0561828093178501E1871307A8
S31580002130D0FC638AE7001307F0FC6386E7008547D7
S3158000214023A6F1CC6D5561F8F2406244D2444249EF
S31580002150B249224A0561828083270A00C843EF205C
S31580002160B054E35A05FA854723A6F1CC22856DB78C
S3158000217039555DB71D554DB7130570FD71BF6D554A
S3158000218061BF79714ECE52CC5EC606D622D426D297
S315800021904AD056CA5AC8AA8B2E8AB289EF30B06BFB
S315800021A0631B051485476391FB14138401CC1C447F
S315800021B0638E07124844631E0512638A0906014925
S315800021C0C54A63880B001C408843EF20D069634171
S315800021D0050EEF303049634E050A184050485C477B
S315800021E0184793061600B29703CB070023AAD1CCD3
S315800021F06394E60023AA01CC444C5C50FD1423AEC4
S3158000220091CC93BB140081C7058363739706EF3027
S31580002210F04B63400508B3072A01238067011C48F9
S315800022200509858B85E3E39E29F9BDE84A85B25089
S31580002230225492540259F249624AD24A424BB24BD4
S31580002240456182801C40C843EF20F06163400508E9
S315800022505A852539E34C05FC79F51C40C843EF20A7
S31580002260B044E35205FC854723A6F1CC4A85C1B725
S315800022704840C545EFF02FB219E548408545EFF057
S315800022802FB4238051CF23A201CEEF303044E354C4
S3158000229005F8854723A6F1CC6D55E30A09F879B789
S315800022A01C408843EF205040E34F05FA4A8541B7EA
S315800022B093178501E1871307D0FCE380E7FE1307B8
S315800022C0F0FCE398E7FCE30409F68DB793178501E4
S315800022D0E1871307D0FCE382E7FC1307F0FCE39465
S315800022E0E7F8E30609F499B7395591B7130570FDF8
S315800022F03DBF6D552DBF1D551DBF411122C426C240
S3158000230006C62A84AE84EF3010551DE18547631FCB
S31580002310F400938701CC984711CFC84719ED23A8BD
S3158000232091CCB24022449244410182803955D5BF36
S315800023301D55C5BF130570FDEDB76D55DDB7411150
S3158000234022C426C206C6AA842E84EF30D0500DE55C
S3158000235085476391F402938701CC984705C3C847A4
S315800023600DE1D84F9C5B18C05CC0B24022449244B9
S31580002370410182803955D5BF1D55C5BF130570FDF6
S31580002380EDB76D55DDB7411122C406C683450502FA
S315800023902A84484199E95C5899E31C5899EF22446C
S315800023A0B240854541016FF04FA4EFF0CF9E2300E8
S315800023B00402B2402244410182801C401854DC4B06
S315800023C0BA9783C50700EFF00F9D14401C54984AB6
S315800023D085071CD46394E700232404021C586308F1
S315800023E0F700FD171CD8B240224441018280C842C2
S315800023F0EF2050391C58E35605FE054758C4D5B71B
S31580002400411122C42A84484106C6EFF00F9A1C481F
S315800024101375F50F13F7071025C34D476301E50ABA
S31580002420585829EFC5476305F5041C40544C984716
S315800024306380E604184CDC47BA972380A7001840CF
S315800024401C4C144785071CCC6381D7085C4CC9C3D8
S31580002450184885075CCC1377074019CB585009EB91
S3158000246018401447139716003697098363FBE706CF
S31580002470B240224441018280585845DB4547630576
S31580002480E50093F70720D5D31C58232A0402EDD301
S315800024901C4018544840DC4BBA9783C50700EFF0C0
S315800024A08F8F35C114401C54984A85071CD4638984
S315800024B0E7041C586300F706FD171CD855BF8547EF
S315800024C05CD8B240224441018280232C0400BDBFE7
S315800024D00843EF20302B5C4CE35C05F6054758C477
S315800024E085BF4840CD45EFF00F8B01E948408545D3
S315800024F0EFF00F8DCD472300F40285475CD08DBF6A
S31580002500232404027DB748402244B24085454101D8
S315800025106FF00F8BC842EF20F0261C58E35E05F85B
S31580002520054758C451BF85476305F50081473E85F9
S315800025308280138701CC1C47FDDB145B8147E5DA7B
S315800025401C431457DC4BB69783C707002380F500DE
S3158000255014431C57944A850723A4F1CE6388D70079
S31580002560185BAA877D1723A8E1CED1B723A401CE15
S31580002570C5BF0111972705009387075AA307A100B6
S3158000258088439305F100054606CEEFF0FFB2F24090
S3158000259005618280797122D406D626D24AD02A84D1
S315800025A0EF30702B29E92A89972405009384C45635
S315800025B005A0C2476369F4001DE088404933634F34
S315800025C00500B24789CF0545EF20C040634005022C
S315800025D00808EFF0FF862C00E35D05FC6D59B250CC
S315800025E022544A8592540259456182801309F0FC2F
S315800025F0E31625FFEDB71D59DDB75D7186C6A6C208
S31580002600CAC04EDE9727050023A8A750A2C4EFF0C4
S315800026103F9585451305F003EFF01F8117290500C7
S315800026201309894F8327090005473AC80C0817679D
S315800026300000130727E815453ACC3ECE97040000E4
S31580002640938464F3EFF04FE0A949014421A0C24787
S315800026502A9499EF0808EFF08FF2E35A05FE09C431
S31580002660A6852285EFE01FB82945EF20A036F1BF69
S3158000267019ECA6850808EFE09FB0032509000546FA
S315800026809305F100A3073101EFF01FA37DBFA68557
S315800026902285EFE03FB5F1BF5D71A6C286C6A2C4B2
S315800026A0CAC04EDE972405009384044721A00345C3
S315800026B0F100BD2588409305F100B5352A8465F97A
S315800026C0170900001309096697690000938949E193
S315800026D00808EFF0CFEAAA846347050205CCCA85CD
S315800026E0268599C0EFE01FB0C2470544F5D3CA8559
S315800026F00808EFE0DFA8294525250808EFF02FE830
S31580002700AA84E35D05FCB640264496440649F25900
S31580002710616182804A8681454E85EFE03F8CC1B7F4
S3158000272029A8411106C6736004302E85EFD0DFC715
S31580002730B240737004304101828005456FE07FDED0
S31580002740411106C6EF007053EF20C072EF20D066AD
S31580002750EF304018EF30D013B24041016F30D03A9D
S315800027604111014506C6EF00F01F0145EFF0AFCAE3
S315800027700145EFF0CFC70145EFE03FCBB2400145C1
S3158000278041016FF0AFFC4111014506C63137B240B9
S31580002790014541016F00502100000000000000004B
S315800027A0130141FC06C00EC212C422C626C84ACAFC
S315800027B04ECC52CE56D05AD25ED462D666D86ADA1B
S315800027C06EDC972505009385E5608841232C2500DE
S315800027D0970500009385C5004CCD95A08240924117
S315800027E022423244C2445249E249724A825A125BB8
S315800027F0A25B325CC25C525DE25D1301C103094695
S315800028008345E500B3D5C540858981CD0C4991C9FD
S31580002810172605001306465C0C42638405006F008C
S31580002820B0768280176500001305851F0321050099
S31580002830176500001305051F0C412E9109A09725E9
S3158000284005009385E54F88411726050013068658AF
S3158000285008C209C5032185014C4D8285F327403086
S31580002860972605009386864D23A0060097250500AA
S315800028709385454490417320463073005010739081
S315800028804730172605001306E64B0C42E5D1232078
S315800028900600972605009386664A85458CC245B70D
S315800028A0176500001305C51703210500176500008D
S315800028B0130545170C412E916F009013972505003F
S315800028C09385C54723A00500971000009380006B71
S315800028D03716000013060688732646300C45C84115
S315800028E090450286130000001300000013000000CC
S315800028F0130181FAF2C4F6C6FAC8FECA976E0000C2
S31580002900938E0E1203AF0E00976E0000938E8E117B
S3158000291083AF0E008A8E3301FF01130181FA2ACC20
S315800029202ECE32D006D236D43AD63ED842DA46DCDD
S3158000293016DE9AC09EC2732520342AC4732F1034A3
S315800029407AC2F32F00307EC0732E403072C676C8AE
S31580002950371600001306068873304630B726000007
S315800029609386868073A006308A85112D6245F2454E
S3158000297002569250A2563257C2575258E258F252D5
S3158000298006439643172F0500130FCF3B832F0F0067
S31580002990639A0F02172F0500130F4F3A23200F005B
S315800029A0124F824FB24E73101F3473900F30739054
S315800029B04E304241264EB64E464FD64F13018105C4
S315800029C073002030124FA24E324E824F42417EC05B
S315800029D072C676C47AC22ACC2ECE32D006D236D4ED
S315800029E03AD63ED842DA46DC16DE9AC09EC2172513
S315800029F005001305253523200500972505009385B9
S31580002A00E533054690C1972505009385A53C884109
S31580002A10172605001306463B1442A5C21726050055
S31580002A20130606321442630AD504130181FC0EC0D4
S31580002A3012C222C426C64AC84ECA52CC56CE5AD0D4
S31580002A405ED262D466D66AD86EDA232C25009705C4
S31580002A5000009385C5004CCDDDB3824112422244ED
S31580002A60B2444249D249624AF24A025B925B225C94
S31580002A70B25C425DD25D1301810309468345E50060
S31580002A80B3D5C540858999C90C4989C917260500DA
S31580002A90130686340C4299C1EF00104F17250500A6
S31580002AA01305C52923200500B245124682467310B8
S31580002AB0163473900630739045306245F24502565F
S31580002AC09250A2563257C2575258E258F252064393
S31580002AD09643264EB64E464FD64F13018105730058
S31580002AE020300100130000001300000013000000D6
S31580002AF0130181FA2ACC2ECE32D006D236D43AD6DB
S31580002B003ED842DA46DC16DE9AC09EC2F2C4F6C6CB
S31580002B10FAC8FECAF326003036C0F32540302EC6EA
S31580002B20B00832C8732520342AC4F326103436C23E
S31580002B30371600001306068873304630B726000025
S31580002B409386868073A006308A85970000009380DE
S31580002B50E0F56F00C0421300000013000000010082
S31580002B607D156356A000130525F9E34EA0FE8280ED
S31580002B7000000000B7C7000283A687FF03A787FF70
S31580002B80E38EE6FE732600B0B7C6000283A786FFF3
S31580002B90998FE3EDA7FE732500B0118D3377F5028B
S31580002BA03355F5023E07B357F7023E053E958280C0
S31580002BB0797106D622D426D24AD04ECE732440F1DD
S31580002BC0B707208D910732043E940440F32740F1E5
S31580002BD093870720B2073709008DCA9783A9070014
S31580002BE09307300363E897069397240017670000DE
S31580002BF01307C7903E9718433AC631C7CA9783C70B
S31580002C00070093F7F70F732740F113070720320762
S31580002C104A971CC3972705009387C7099C43F3A748
S31580002C20473004C0B2478297856793870788F3B792
S31580002C30473093F9F90FF32740F193870720B207BE
S31580002C40CA9723A03701B250225492540259F249AE
S31580002C5045618280268697650000938525A8014573
S31580002C60EFE08FDAB25004C0225492540259F249EE
S31580002C7045618280411106C622C4732440F1054510
S31580002C80D53D2945C53D9727050023A3A7021D2CC1
S31580002C90930704049E073707008DB386E700110764
S31580002CA03E9723A00600B707008D232007001387D1
S31580002CB0470D238007008507E39DE7FE93070420E1
S31580002CC03707008DB207BA97B240224423A0070087
S31580002CD097070000938707EE172705002326F7043A
S31580002CE041018280411106C622C4732440F1AD247D
S31580002CF0930704049E073707008DB386E700110704
S31580002D0023A00600BA9723A0070001A0411197656A
S31580002D1000009385E59E014506C6EFE0EFCED937E4
S31580002D20411122C406C6A9472A84630BF5001315F0
S31580002D3084012244B2408545618541016FE05F8D03
S31580002D4085453545EFE0DF8C131584012244B2407A
S31580002D508545618541016FE0BF8B397122DC26DABA
S31580002D604AD806DE1307F5FF930730032A84AE841C
S31580002D703309C04063ECE7061D06994763E1C70A3D
S31580002D80732740F193575400939627009767000066
S31580002D90938787C8B6978C438547B3968700135623
S31580002DA03400ED8EB705008D2E9685C21307070475
S31580002DB01E0732978345070013757400B397A700E3
S31580002DC093C7F7FFED8F2300F7009317240037078B
S31580002DD0008DBA971379F90F238027018588A5E49A
S31580002DE0F2506254D25442592161828089473EC84A
S31580002DF097670000938747933ECC9307D00F3ECECC
S31580002E000C08976700009387A794014532C63ED089
S31580002E10EFE09FE3324699471D06E3F3C7F68947FD
S31580002E203EC897670000938727903ECC9307E00FB4
S31580002E303ECE0C08976700009387479301453ED0A6
S31580002E40EFE09FE035BFF32740F1D9DA9387070497
S31580002E509E073E96034706001D8885473394870064
S31580002E60598C1374F40F23008600F2506254D254A6
S31580002E7042592161828001113706008022CC4AC8DE
S31580002E804EC603A9450083A905001354B501134610
S31580002E90F6FF698E26CA0145AE8441889765000093
S31580002EA09385858F06CE3294EFE00FB6A6874E8740
S31580002EB0CA86228697650000938505900145EFE0D6
S31580002EC0AFB40D350111930700003EC6B24706CE5A
S31580002ED099C3B24782978547172705002320F7E6CF
S31580002EE0856793870788172705002325F7DCF3B7BF
S31580002EF04730F367443097270500239F07DA8147D9
S31580002F0097250500938585DB170600001306E6F6F0
S31580002F1093060002139727002E9710C38507E39B1D
S31580002F20D7FEF3275030172705002329F7BE9707CA
S31580002F3000009387279C73905730F3670430F327FC
S31580002F40103093F7070291C79967739007307350D3
S31580002F503000F240056182800111930700003EC671
S31580002F60B24706CE99C3B2478297972705009387C3
S31580002F70E7BA9C4373905730F240056182801726EA
S31580002F800500035666D39307160079711727050047
S31580002F902314F7D2B707008022D493C7F7FF06D64B
S31580002FA0AA863377F500172405001304E4D019E6C2
S31580002FB097070000938707B47390573093D7B6016D
S31580002FC0C18BBA977D476362F7048A071727050086
S31580002FD01307C7CEBA979C4399C336858297835782
S31580002FE00400FD17C207C183172705002316F7CCF7
S31580002FF099E7970700009387E78F739057300355BB
S315800030000400B25022544561828085473EC08A853D
S31580003010975700009387877E01453EC436C6EFE00A
S31580003020BFC283570400FD17C207C1831727050057
S315800030302314F7C8E9F775BFB7C7000203A7C7FF10
S3158000304003A687FF83A6C7FFE31AD7FE9306060269
S3158000305033B6C600B74700023297D8C394C39707E2
S31580003060000093872701172705002327F7CA828048
S31580003070411106C622C426C24AC0F32740F193876F
S3158000308007203707008DB207BA9717240500130467
S3158000309064C284431C40374700029308703E93F70E
S315800030A0F7F79726050023A7F6C0032847000843AD
S315800030B0972705009387C7A68C43B7C700022E873C
S315800030C063E9B8089306050233B5A6002A983685C3
S315800030D093050730172705002324B7A483A6C7FFC7
S315800030E003A687FF03A7C7FFE39AE6FE3306C5401C
S315800030F0E357C0FCB747000223A2070188C3F32722
S3158000310040F1938707203709008DB207CA97114788
S3158000311098C31C40F3A74730EF00102F856793872D
S315800031200788F3B7473013F7F40FF32740F19387F7
S315800031300720B207CA9798C31C40B240224493E73F
S315800031400708172705002327F7B69244024941014D
S3158000315082809306150233B5A6002A98138785C107
S315800031603685BDB7B7C7000203A7C7FF03A687FF8B
S3158000317083A6C7FFE31AD7FE9306060233B6C600B8
S31580003180B74700023297D8C394C3930700301727F6
S3158000319005002327F79897070000938727EA1727C4
S315800031A00500232BF7B6828093070008F3B74730D4
S315800031B08280411106C6EFF0FFABF92DEFF04FD8B4
S315800031C0EFF00FDA854717270500232DF794EFF0E8
S315800031D06FE5411106C6F3274030856793870788D8
S315800031E0F3B747309727050023AE0792EFF04FEBF2
S315800031F0411106C6EFF02FD9EFF0DFAE797122D4F8
S3158000320006D617240500035464BC1DCC9377F40FAF
S315800032108146B1CF1377F40009E7118091061377C1
S31580003220F400175400001304E45F3A948347F4FFD4
S31580003230B2502254B6978E07172705001307C7B0DA
S31580003240BA9788434561828089473EC09757000078
S315800032509387475E3EC49307C00A3EC68A859757C2
S3158000326000009387675E01453EC8EFE0FF9D2180A1
S31580003270A1464DB70346D500972605009386C6AC72
S31580003280AA8713173600BA96CC42054714C14CC19B
S31580003290172505001305C5AA17280500035808B386
S315800032A03317C7000841336707019CC1DCC29726E4
S315800032B00500239DE6B019C50347D5000145636324
S315800032C0E600828017270500130707B008431727F3
S315800032D005002327F7A6828079714AD006D622D4A4
S315800032E026D28344D5001841544117290500130975
S315800032F0A9A59397340098C2CA97904354C3630F85
S31580003300F602972705009387A7A39C436389A700A6
S315800033100145B25022549254025945618280B2507E
S31580003320225497270500938727AA88439727050065
S3158000333023A8C7A092540259456182805C422A84A0
S315800033406305F60289473EC0975700009387C750AA
S315800033503EC4930770093EC68A85975700009387B7
S31580003360E75001453EC8EFE03F8E8547B39497000E
S31580003370972705009387C79C17270500035707A53E
S3158000338093C4F4FF9C43F98C17270500231097A458
S31580003390E39087F8814799E8172705002322F79A53
S315800033A097270500938747A28843A5B793F7F40F1D
S315800033B0814699E3A180A14613F7F40009E791803D
S315800033C0910613F7F400975700009387A745BA979D
S315800033D083C7F7FFB6978E073E99832709006DBF8F
S315800033E018458347E500230605005847E59B2307D4
S315800033F0F500A306E5002328050082800C450346D8
S31580003400D500AA87D8498849131836008545972656
S31580003410050093866693C2962386B700CC422A9788
S3158000342098CF17F7FFFF1307A749D8CF17250500B1
S3158000343013050591054794C3172805000358089975
S31580003440CCC33317C7000841336707019CC1DCC270
S3158000345097260500239CE69619C50347D5000145A6
S315800034606363E6008280172705001307E795084304
S31580003470172705002326F78C828085470111172799
S315800034800500232BF79417270500232FF79217277C
S31580003490050023210794172705002323078A17276A
S315800034A005002321078A172705002323079206CEC6
S315800034B022CC26CA4AC84EC652C49727050093878F
S315800034C0A7881727050013072790DCC39CC3A1078D
S315800034D0E31DF7FE975700009387C75703A9070098
S315800034E0972705002394078E630A090497540000E2
S315800034F0938484130144171A0500130A6A71975935
S3158000350000009389A9139C4005049104FD17960732
S315800035103305FA008346E500CE97D0479843E19A73
S315800035201CC523060500A306C5002307D50023284E
S3158000353005009377270099EBE31789FCF2406244F4
S31580003540D2444249B249224A05618280453DE31C04
S3158000355089FAEDB7397106DE22DC26DA4AD84ED6EC
S3158000356052D48347C5008349D500A306B50013F717
S31580003570170025CF1841544193973900171A050033
S31580003580130A8A7C98C2D297904354C32E892A8480
S31580003590638AC70A9724050083D444839317390026
S315800035A0D297D443054733172701D98C17170500BF
S315800035B0130707791CC054C01843C20480C2C18057
S315800035C0C0C39727050023939780630E870A834796
S315800035D0D700636FF9040147F2506254D2544259BE
S315800035E0B259225A3A852161828093F787077D47AF
S315800035F0E373F7FE5C49D4439C469C43858BE1DFAD
S315800036005041184118C29C4250C30346D500639668
S31580003610F60001A89C436386F60003C7D700E37BC8
S31580003620E6FED4431CC1014754C188C2C8C36DB7E6
S315800036309717050023A68770971705009387C77885
S31580003640984359BFD8436385E70289473EC0975759
S315800036500000938767203EC4930770093EC68A851B
S31580003660975700009387872001453EC8EFE0CFDD5E
S315800036708544B394340193C4F4FF9717050083D728
S31580003680E774FD8C21BFE36839F5B1C493F7F40F75
S315800036908146ADC713F7F40009E79180910613F7C9
S315800036A0F400975400009384E417BA9483C7F4FF18
S315800036B0B6978E073E9A83270A001717050023219F
S315800036C0F768E30AF4F0971705009387E76F9C4342
S315800036D0054799F309B789473EC0975700009387F6
S315800036E067153EC49307C00A3EC68A859757000071
S315800036F09387871501453EC8EFE00FD5A180A14687
S3158000370051BF97170500938727640E053E951C4188
S315800037106300F50498436300A70218C148C3584163
S31580003720971605009386C66188C3D8C394421CC386
S315800037305CC16384F600014582801C411717050031
S3158000374013078768084317170500232BF75E8280C7
S315800037505C41E302F5FE797189473EC097570000C8
S315800037609387870F3EC4930770093EC68A8597570D
S3158000377000009387A70F014506D63EC8EFE0CFCC61
S31580003780B250014545618280797126D29714050031
S31580003790938444649C40171705001307676322D4FB
S315800037A0004303C7E7004AD04ECE52CC56CA5AC809
S315800037B05EC662C466C206D66D9B056C884B23873F
S315800037C0E700933B1400171B0500130B2B57971A22
S315800037D00500938A2A4E171A0500130AEA5F97197D
S315800037E005009389E955130C0C880549B70C008DA3
S315800037F019A0884B3DCD171705002321075423A810
S31580003800070003A70A00732747309C47CC43DC4F49
S31580003810829783270B0099E7F3374C30971705007B
S3158000382023AE275183270A0089EFF32740F1938738
S315800038300720B207E69723A007009717050023AD58
S3158000384027599C40171705002324875883A609000B
S3158000385003C7E70017160500232876576D9B238735
S31580003860E700E388D7F851F4EFE09FF39C40884B5C
S3158000387059F103C7E700B2502254136747002387E4
S31580003880E70092540259F249624AD24A424BB24BFD
S31580003890224C924C456182809717050023A20754DB
S315800038A09717050023AC0752854717170500232B6A
S315800038B0F7529717050023A907528280854763FF31
S315800038C0A706935615001387F6FF171605001306ED
S315800038D0662F0E07B307E600171805001308085071
S315800038E0032E08009C43B385C541B387C74163F760
S315800038F0F504854E09A8832703003685B387C7411B
S3158000390063FCF502C6863308E600032308009307A6
S31580003910F5FF8E07B29723A067000328480093D847
S3158000392016001387F8FF23A207010E072320A8009D
S315800039303303E600E391D6FD36858280AA863685F6
S315800039408280971705009387274A03AE0700931650
S3158000395015006364DE08971705009387274883AEB2
S315800039600700971805009388E825B385D5411DA8DB
S31580003970032703003307D7416376C704B6873A86A1
S315800039801307F5FF8E070E07C697469793161800FE
S315800039906375B604904310C3DC435CC388C3428519
S315800039A0636DDE029387F6FF139737001396360012
S315800039B046973383C8001043138816003306D641D2
S315800039C0E3780EFB1307F5FF36888E070E07C6973A
S315800039D0469793161800E36FB6FA8280971705000C
S315800039E09387874083AF0700854713861F00171785
S315800039F00500232BC73E63FBC70813571600930E9B
S31580003A00F7FF971605009386E61B13983E00B3874B
S31580003A100601971805009388683C83A208009C439A
S31580003A20B3835540B387574063FDF306411122C6E1
S31580003A30054411A883270F003A869A8EB38757408C
S31580003A4063FEF3027287B388060103A80800930712
S31580003A50F6FF8E07B69723A0070183A84800135E5A
S31580003A6017001303FEFF23A217011318330023A0A8
S31580003A70C800338F0601F68FE31E87FA8E0FFE96F7
S31580003A8032448CC2C8C218C14101828032879716DF
S31580003A900500938626138E0FFE968CC2C8C218C167
S31580003AA082803287CDBF411126C297140500938448
S31580003AB0A433984022C4171405001304A4107D175C
S31580003AC0131337000841B307640006C6971605002E
S31580003AD023ACE6308C435DCB0546637EA60A9358BD
S31580003AE015009386F8FF939736001717050013077E
S31580003AF0E72E3308F400032E0700032F0800B38E49
S31580003B00C5413307CF4163F8EE081307F5FF0E076B
S31580003B1022972320E701832548004CC388C163830D
S31580003B20C80A09811307F5FF0E073306E400104221
S31580003B303306C64163FBCE08854719A803260800CD
S31580003B40AA889306F5FF3306C64163FACE062E850C
S31580003B503306E400032806008E06A29623A00601FB
S31580003B605042935515001387F5FFD0C20E072320C8
S31580003B7016013308E400E313F5FC8147330764003C
S31580003B801443A29794C35843D8C308C3B24022446F
S31580003B90924441018280753398409307F5FF8E07E2
S31580003BA013133700330764001443A297B24094C3BB
S31580003BB0584322449244D8C308C3410182809397D4
S31580003BC03600CDB70545814755BF4685E1BF1C41C7
S31580003BD017170500130707FFFD178E07BA97884347
S31580003BE0171705001307871F971705009387871FE9
S31580003BF018439C43B306E5403387E7406374D70098
S31580003C001D8D828001458280397106DE22DC26DAAE
S31580003C104AD84ED652D49717050083D7E7096384CE
S31580003C20071297170500938767119C43EDEB85670D
S31580003C3093870788F3B74730971705009387871AC6
S31580003C409043971405009384241A9C408546130755
S31580003C5016009715050023A3D50E9716050023A1F8
S31580003C60C6189716050023AFE616D9C3171905009F
S31580003C701309C916171405001304C4F48326090012
S31580003C801840B305D640158F63E4E50697190500FD
S31580003C909389091519A88326090003A609001840E7
S31580003CA0B305D640158F63E5E504FD1713973700F6
S31580003CB022979716050023A9F6120545032A440084
S31580003CC00C4391CFBD3998409307F5FF8E070E07B9
S31580003CD022971443A29794C35843D8C308C3832713
S31580003CE04A0003258A0082979C40D5F703A60900DF
S31580003CF09717050023A407049717050023A0C70E6E
S31580003D0097170500938707FB9C43F3A74730F2502C
S31580003D106254D2544259B259225A216182808947CB
S31580003D203EC097570000938727B63EC49307501628
S31580003D303EC68A8597570000938787B701453EC858
S31580003D40EFD09FF0EDB589473EC097570000938727
S31580003D50A7B33EC4930740163EC68A859757000090
S31580003D60938707B401453EC8EFD01FEE5DBD411174
S31580003D7006C622C49717050083D707F4E9E3971789
S31580003D8005009387A7FB80435DE8635FA000975794
S31580003D900000938727CC9C4363D7A7063954228596
S31580003DA0B24022444101828075F9971705009387B6
S31580003DB067028843856793870788F3B747308347C9
S31580003DC0C50005479716050023AAE6F6ADC38347C7
S31580003DD0E50013F717001DC3130450FD9717050060
S31580003DE023AE07F4971705009387C7EC9C43F3A788
S31580003DF047302285B24022444101828093E71700F2
S31580003E002307F500E1BF7D1597170500938747E0E7
S31580003E1016053E95856793870788F3B747308347AE
S31580003E20C50005479716050023AAE6F0CDF3EFF007
S31580003E30EFDC19E101445DB7EFE09F9645B71D546D
S31580003E404DBF411106C622C426C29717050083D7E7
S31580003E50A7E6C9CB97170500938747EE804359E0BD
S31580003E606354A008975700009387C7BE9C4363CDD1
S31580003E70A70685677D1593870788F3B74730971719
S31580003E8005009387E7D816053E958347C500854488
S31580003E9017170500232497EA95CF8347E50013F784
S31580003EA0170005C7130450FD9717050023A807E8D8
S31580003EB097170500938707E09C43F3A74730228531
S31580003EC0B240224492444101828093E7170023073F
S31580003ED0F500D9BFEFF08FD261D99717050023A3DC
S31580003EE097E6D9B71D54E1BF3954D1BF17170500DE
S31580003EF0035787DCAA872DEF17170500130707E4FA
S31580003F0018433DE7635BA00017570000130787B48B
S31580003F10184339556356F704828029ED97170500B3
S31580003F20938747EB9C4305671307078873374730AA
S31580003F3003C5E70005479716050023A1E6E013773A
S31580003F40E5FF9716050023AB06DE2387E700971764
S31580003F500500938727D605899C43F3A7473082803F
S31580003F60FD17960717150500130585CAAA9765BF1D
S31580003F701D558280395582809717050083D7C7D310
S31580003F8099C31D55828097170500938727DB9C432D
S31580003F90411106C622C499EB856793870788F3B7D4
S31580003FA04730854717170500232AF7D89717050046
S31580003FB0938707E29C4389C79717050023AA07E0E2
S31580003FC097170500938747E19C4385E3F32740F1E4
S31580003FD0938707203707008DB207BA9723A007007B
S31580003FE08547171705002329F7DE171405001304E4
S31580003FF064DE08408547171705002327F7DCEFF0B6
S31580004000AFAD0840EFF0CFBD08408347E50013F71A
S31580004010170019E3EFE0BF82F99B2307F500EFF065
S31580004020EFBDCDBF011106CE22CC26CA4AC84EC6E8
S315800040309717050083D747C86399070E971705001A
S315800040409387C7CF83A907006391090E6351A00E9A
S3158000405097570000938707A09C4363CAA70C9717BE
S315800040600500938727D77D159C4313145500171990
S3158000407005001309E9B9B3048900638C970A85673B
S3158000408093870788F3B7473083C7C40005479716D9
S31580004090050023A5E6CA95E7930970FD97170500E5
S315800040A023AE07C8971705009387C7C09C43F3A71D
S315800040B04730F24062444E85D2444249B249056156
S315800040C0828013F7170029E713F7270019CF93F794
S315800040D087073D476376F7009C40D8401CC3D8C30A
S315800040E0DC48884319C1EFF01F9C2685EFF04FAF5F
S315800040F04A948347E40013F717004DD3F99B26852E
S315800041002307F400EFF08FAF51D9EFE06FE979B76D
S315800041102685EFF06F9C2685EFF08FAC4A94834717
S31580004120E40013F717003DDBD1BF9D5959B7B95944
S3158000413049B79159BDBF171705000357E7B771EF08
S3158000414017170500130787BF184361EBAA876355C6
S31580004150A002175700001307E78F184339556346A7
S31580004160F7064147636FB70AFD17960717150500CF
S31580004170130505AAAA9719A85DE1C1473D5563E7CE
S31580004180B704971705009387E7C49C431386F5FF0A
S3158000419099E1984750470567130707887337473073
S315800041A003C7C70085469715050023A9D5B813050B
S315800041B070FD11EF9717050023A207B89717050022
S315800041C0938747AF9C43F3A7473082808280411113
S315800041D0B2853E8506C6EFF0EFB719ED9717050055
S315800041E023AE07B4971705009387C7AC9C43F3A704
S315800041F04730B24041018280EFE08FDA97170500A1
S3158000420023AE07B2971705009387C7AA01459C433B
S31580004210F3A74730B240410182801D5582803955CF
S3158000422082803D558280171705000357E7A8AA8725
S3158000423045EB17170500130767B0084355E1635B25
S31580004240F000175700001307E78018436355F706F9
S3158000425039558280F5FF971705009387A7B70567BD
S315800042609C43130707887337473003C7C7008546C3
S31580004270171605002324D6AC0DC383C7D700850740
S315800042809CC19717050023AB07AA9717050093874C
S3158000429067A29C43F3A7473082809717050023AF18
S315800042A007A8971705009387E7A0130570FD9C4321
S315800042B0F3A747308280FD17171705001307479528
S315800042C09607BA970567130707887337473003C77A
S315800042D0C7008546171605002322D6A65DDF71BF67
S315800042E01D5582809717050083D7079DB1E79717DD
S315800042F005009387A7A4984321E38567938707885A
S31580004300F3B74730971705009387C7AC9C4385461C
S31580004310171605002324D6A29C47DC431CC1971799
S31580004320050023AD07A0971705009387A7989C43A0
S31580004330F3A747303A8582801D57EDBF9717050052
S3158000434083D78797C1E7971705009387279F884369
S3158000435035ED97170500938727A79C43A5CB0111B9
S31580004360856706CE22CC93870788F3B74730171424
S315800043700500130424A6184085479716050023AF29
S31580004380F69A8347E70093F627009DC2F59B23079D
S31580004390F7009717050023A3079A971705009387B9
S315800043A067919C43F3A74730F2406244056182805F
S315800043B0A9472306F7003A85EFE01FF21C407800F4
S315800043C002C6D8CBEFE0CFBD3245E1B71D5582801E
S315800043D09717050083D7478EC5E7971705009387FC
S315800043E0E795984351EF971705009387E79D9C4380
S315800043F0C1CBFD576348F508856793870788F3B770
S315800044004730971705009387E79C9443854717168F
S3158000441005002325F69283C7E60013F627000DE2F2
S315800044201307E0FC15E19717050023A90790971756
S315800044300500938727889C43F3A747303A85828077
S31580004440F59B2387F600C5B7011106CEA9472386BB
S31580004450F6002A864C000A85EF202001EFE04FB453
S315800044609717050023AC078C9717050093878784D9
S3158000447002479C43F3A74730F2403A850561828024
S315800044801D576DBF3D575DBF411106C622C49717A4
S31580004490050083D76782F1EB971705009387078A14
S315800044A0804361E4635FA000974700009387875A43
S315800044B09C4363DCA70639542285B24022444101DD
S315800044C0828075F9971705009387C790884385671B
S315800044D093870788F3B747308347C5000547971604
S315800044E0050023ADE6849DE3130470FD9717050050
S315800044F023A60784970705009387C77B9C43F3A76A
S3158000450047302285B24022444101828093F7870753
S3158000451021476384E7048347E50013F727001DEBF3
S3158000452093E727002307F500D1B77D159707050088
S315800045309387076E16053E95856793870788F3B739
S3158000454047308347C50005479706050023A8E67EC2
S31580004550C1DF6DBF130450FD51BFEF10D07A19E152
S31580004560014469B7EFE0CFA351B71D5459BF41113C
S3158000457006C622C426C29707050083D7E773CDC334
S31580004580970705009387877B804359E8635CA0087B
S31580004590974700009387074C9C4363C5A7088567A8
S315800045A07D1593870788F3B747309707050093876C
S315800045B0276616053E958347C5008544170705007F
S315800045C0232E977685E7130470FD9707050023A7AA
S315800045D00776970705009387E76D9C43F3A74730D7
S315800045E02285B240224492444101828093F7870714
S315800045F02147638FE7008347E50013F7270011E71C
S3158000460093E727002307F500C9B7130450FD75BF4C
S31580004610EF10706F5DD99707050023A5977275B760
S315800046201D547DBF39546DBF170705000357C768F2
S31580004630AA8759EF1707050013074770184349EBF8
S31580004640635BA000174700001307C740184339551E
S315800046506358F70682803DED970705009387877735
S315800046609C430567130707887337473003C7C7001E
S315800046708546170605002323D66C130570FD09EFC2
S315800046809707050023AC076A97070500938787621B
S315800046909C43F3A74730828003C7E7001355170072
S315800046A0759B2387E7009707050023A90768970767
S315800046B005009387276005899C43F3A7473082804E
S315800046C0FD1796071705050013058554AA9751BF50
S315800046D01D558280395582809707050083D7C75D2F
S315800046E0C5EB97070500938767659C43D5E36353BE
S315800046F0A00A974700009387E7359C4363CCA708B9
S3158000470085677D1593870788F3B747309707050038
S31580004710938707501605AA9703C7C70085461706CD
S315800047200500232DD660098B130570FD09EF9707C9
S31580004730050023A50760970705009387A7579C4325
S31580004740F3A74730828041113E8506C6EF10F06C94
S3158000475019ED9707050023A3075E97070500938742
S3158000476067559C43F3A74730B24041018280EFE012
S315800047702F839707050023A3075C97070500938778
S31580004780675301459C43F3A74730B240410182807D
S315800047901D558280395582809707050083D7C7517A
S315800047A0D9C397070500938767599C43ADEF635E2E
S315800047B0A006974700009387E7299C4363C7A7060F
S315800047C04111856706C622C47D1593870788F3B78E
S315800047D04730970705009387A7431605AA9703C70F
S315800047E0C70005449706050023AA8654098B13053E
S315800047F070FD05E39707050023A207549707050078
S315800048009387474B9C43F3A74730B24022444101EC
S3158000481082803E85EF10706071DD9707050023A3C7
S3158000482087520145C1BF1D5582803955828041110D
S3158000483006C622C49707050083D70748FDE7970772
S3158000484005009387A74F80436DE0635FA00097477D
S315800048500000938727209C4363D9A7063954228575
S31580004860B24022444101828075F9970705009387FB
S31580004870675688438567938707882A87F3B74730C3
S3158000488085479706050023ABF64A6308E506834706
S31580004890C5009DE3130470FD9707050023A0074A12
S315800048A097070500938707419C43F3A747302285E6
S315800048B0B24022444101828013F7170021EF13F79B
S315800048C0470021C7130450FDC1BF7D15970705001A
S315800048D09387073416053E95970705009387874F7C
S315800048E09843856793870788F3B747308547970648
S315800048F0050023A5F644E31CE5F897070500938792
S31580004900A74C9C43C9F71D5441BF93E74700230634
S31580004910F50059B791472306F500EFE0FF9B19E1B3
S3158000492001449DBFEFD0DFE785BF1D5449B74111D4
S3158000493006C622C49707050083D70738C1EB9707B9
S3158000494005009387A73F804351E06353A0089747AC
S315800049500000938727109C4363CCA70685677D1547
S3158000496093870788F3B74730970705009387472AC9
S315800049701605AA9703C7C700854617060500232F85
S31580004980D63A137647001DC6137627001DC66D9B43
S315800049902386E7009707050023A2073A97070500B5
S315800049A0938747319C43F3A747302285B240224400
S315800049B041018280130470FDF1BF3E852386D700B6
S315800049C0EFE05F8B61D9EFD0BFDDE9B71D54F1BF52
S315800049D03954E1BF9707050083D7072ED9EF97078C
S315800049E005009387A7359C43C9EB970705009387F6
S315800049F0A73D9C43D9C3634405080111856722CC32
S31580004A0006CE26CA2A8493870788F3B74730970449
S31580004A1005009384243C884089472306F500854712
S31580004A2017070500232CF730EFE01F8B17070500CB
S31580004A301307473B9C400C43580023AA27003A851E
S31580004A40A2953AC0172700001307A7B33EC63AC4FB
S31580004A50EFE0DFF8EFD0DFD49707050023A0072E1D
S31580004A60970705009387072502459C43F3A74730A0
S31580004A70F2406244D244056182801D5582803D5554
S31580004A808280170705000357272363170710170728
S31580004A9005001307A72AAA870843631F050E635CD0
S31580004AA0F004174700001307E7FA18436342F70A32
S31580004AB0D5C1FD1717070500130787159607BA97FF
S31580004AC00567130707887337473003C7C7008546CE
S31580004AD0170605002324D62639E39707050023AF5A
S31580004AE00724970705009387E71C130570FD9C43F1
S31580004AF0F3A747308280A9EFB1CD9707050093874A
S31580004B00672D05679C43130707887337473003C7AC
S31580004B10C7008546170605002322D6225DDF984703
S31580004B20584F45DF984B970605009386A62A9442F0
S31580004B30D98D8CCB6382F6029707050023A00720C8
S31580004B4097070500938707179C43F3A74730828012
S31580004B50395582803D55828083C7E700918BE9DF96
S31580004B6097070500938747279C4399E30145E9B753
S31580004B70011106CE2AC6EFE03FC19707050023AF95
S31580004B80071A970705009387E71232459C43F3A7D8
S31580004B904730F240056182801D55828017070500E7
S31580004BA003578711AA8755C31707050013070719E7
S31580004BB0084341ED635DF00817470000130787E956
S31580004BC018436346F708D1C50567FD17130707889D
S31580004BD07337473017070500130787039607BA9779
S31580004BE003C7C7008546170605002329D61419EF83
S31580004BF0130570FD9707050023A207149707050084
S31580004C009387470B9C43F3A7473082809847584F3A
S31580004C1065D3984B970605009386C61B9442D98D1B
S31580004C208CCBE399F6FC83C7E600918BE1D7970797
S31580004C3005009387671A9C4399C785471707050020
S31580004C402322F71045BF014575B71D55828039551A
S31580004C5082803D5582809707050083D7E705A5EBBF
S31580004C60970705009387870D884335E18567938786
S31580004C700788F3B74730970705009387A7159C43A6
S31580004C8005479706050023ABE60A9847584F15C394
S31580004C9003C7E7006D9B2387E7009707050023AFCF
S31580004CA00708970705009387E7009C43F3A74730DB
S31580004CB082809707050023A3070897070500938737
S31580004CC067FF130570FD9C43F3A7473082801D550F
S31580004CD082809707050083D727FECDE797070500D3
S31580004CE09387C705884359ED856793870788F3B708
S31580004CF04730970705009387E70D9C43054797063E
S31580004D00050023ADE6029847584F1DCB03C7E70041
S31580004D10944B136747002387E70099C697070500DA
S31580004D209387870B9C439DEB9707050023A8070075
S31580004D3097070500938707F89C43F3A7473082803F
S31580004D409707050023AC07FE97070500938787F62C
S31580004D50130570FD9C43F3A747308280011106CE70
S31580004D602AC6EFE07FA29707050023A907FC9707CD
S31580004D700500938727F432459C43F3A74730F240DA
S31580004D80056182801D558280970705009387870479
S31580004D909C43054599C703C5E7000981134515005E
S31580004DA00589828017070500035707F1AA8769E3FB
S31580004DB017070500130787F808435DE9635BF00072
S31580004DC017470000130707C91843635EF70639556E
S31580004DD08280F5FF970705009387C7FF05679C4389
S31580004DE0130707887337473003C7C70085461706FA
S31580004DF005002325D6F419EF9707050023A007F4AD
S31580004E0097070500938707EB130570FD9C43F3A76F
S31580004E10473082809847584F65D303C7E700944B45
S31580004E209377470093B7170085079CC197070500BE
S31580004E3023A607F0970705009387C7E7D4C19C434D
S31580004E40F3A747308280FD1717070500130747DC55
S31580004E509607BA970567130707887337473003C7DE
S31580004E60C700854617060500232AD6EC51D75DB7BD
S31580004E701D55828097470000938787BD904305C65E
S31580004E8097070500938707D2120617370000130786
S31580004E9027783E96544398C7DCC39CC3D4C7C107C2
S31580004EA03107E399C7FE82809707050083D7C7E05D
S31580004EB0F1E797070500938767E89C43E1E3635131
S31580004EC0A00C974700009387A7B89C4363CAA70A9C
S31580004ED07971856722D406D626D21304F5FF938787
S31580004EE00788F3B74730970405009384A4CB120450
S31580004EF0B3878400884305479706050023A0E6E428
S31580004F00638CA702184198C35CC3EF10C05F0DE1A4
S31580004F109707050023A407E297070500938787D99B
S31580004F209C43F3A74730B250225492544561828005
S31580004F30EFD01F870145E9BFD8436385E7028947DC
S31580004F403EC097470000938727913EC49307700918
S31580004F503EC68A85974700009387479101453EC89C
S31580004F60EFC09FCE269418445C44130550FD184725
S31580004F70E3F0E7FA85075CC4014559BF1D55828079
S31580004F80395582809707050083D707D3E9CB9707E2
S31580004F9005009387A7DA9C43F9E36354A00C9747EF
S31580004FA000009387E7AA9C4363CDA70A797185673A
S31580004FB022D406D626D24AD01304F5FF93870788D3
S31580004FC0F3B74730970405009384C4BD1204B387B2
S31580004FD084008843054917070500232127D7638E58
S31580004FE0A702184198C35CC3EF10E05111C597071B
S31580004FF0050023A927D501459707050023A007D4D7
S3158000500097070500938707CB9C43F3A74730B25099
S3158000501022549254025945618280D8436385E702BF
S3158000502089473EC097470000938707833EC493070E
S3158000503070093EC68A859747000093872783014576
S315800050403EC8EFC07FC0269418445C44130550FDCB
S315800050501847E3F3E7FA85075CC4014571BF1D5520
S315800050608280395582809707050083D7E7C4D5EBC0
S3158000507097070500938787CC9443C5E69707050075
S31580005080938787D49C43D1CF635FA008974700005E
S315800050909387079C9C4363C8A70805679307F5FF1A
S315800050A0130707887337473017070500130787AF3D
S315800050B092073305F700584505469707050023AF45
S315800050C0C7C605C37D1758C59707050023A807C619
S315800050D097070500938707BE9C43F3A7473036851D
S315800050E08280170705001307E7CE1843011106CE05
S315800050F0930720022306F7002C00EF10005BEFD009
S315800051002FEA9707050023AB07C297070500938709
S3158000511067BAA2469C43F3A74730F24036850561BD
S3158000512082809D566DBFB9565DBF17070500035730
S31580005130A7B8AA873DEF17070500130727C00843BE
S315800051402DE9635AF0061747000013076790184346
S315800051506343F7060567FD171307078873374730DC
S3158000516017070500130707A49207BA97D8478546FD
S31580005170170605002324D6BC19EF9707050023AF31
S3158000518007BA970705009387E7B21305E0FC9C43AF
S31580005190F3A7473082807D17D8C79707050023AFCE
S315800051A007B8970705009387E7B09C43F3A7473076
S315800051B082801D558280395582809707050083D766
S315800051C0A7AFF9E397070500938747B790434DEE5E
S315800051D097070500938747BF9C43DDC76358A00A9E
S315800051E0974700009387C7869C4363C1A70AFD57EC
S315800051F063C0F50A05679307F5FF130707887337BA
S315800052004730170705001307E79992073305F7001C
S31580005210584585469707050023A2D7B20DE31306A6
S31580005220E0FC8DE19707050023AA07B097070500E4
S31580005230938747A89C43F3A74730328582807D17A2
S3158000524058C5CDB7170705001307C7B81843797136
S3158000525006D6930720022306F700AE8650086C0018
S31580005260EF10804CEFD0CFD39707050023A807AC6B
S3158000527097070500938707A432469C43F3A74730D8
S31580005280B2503285456182801D5645BF395675B705
S315800052903D5665B7411106C622C426C2970705004A
S315800052A083D787A1BDEF97070500938727A98443F6
S315800052B0ADE86356A00697370000938767799C43CD
S315800052C063CFA70485671304F5FF93870788F3B731
S315800052D04730170505001305E58C12042A94854787
S315800052E0228517070500232BF7A4EF10804B1C445B
S315800052F0DC435CC415E19707050023A107A4970743
S3158000530005009387279B9C43F3A74730B2402244EE
S315800053102685924441018280EFD08FC8E9BFB95477
S31580005320F5B79D54E5B7397106DE22DC26DA4AD810
S315800053304ED69707050083D72798F9E39707050088
S315800053409387C79F83A90700639C090A6358A00AAD
S31580005350973700009387C76F9C4363C1A70A856709
S31580005360AE841304F5FF93870788F3B74730170990
S315800053700500130929831204330789001C438546D7
S3158000538017060500232CD69A6381E70417070500C4
S3158000539013070788998F95871387170098C04A94B3
S315800053A05C4417070500232B0798DCC09707050088
S315800053B0938747909C43F3A74730F25062544E85BB
S315800053C0D2544259B25921618280D4430147E3873E
S315800053D0D7FC89473EC0973700009387E7473EC48E
S315800053E0930770093EC68A859737000093870748DA
S315800053F001453EC8EFC05F854E874DB7B95975BF29
S315800054009D5965BF9707050083D7078BA1E7970747
S3158000541005009387A792984315EF8567938707883A
S31580005420F3B74730970705009387879B9C4385464C
S31580005430170605002324D6901CC19707050023AFC5
S31580005440078E970705009387E7869C43F3A7473027
S315800054503A8582801D57EDBF2A88732E4030856736
S3158000546093870788F3B74730970705009387879711
S3158000547083A80700B7C7000203A7C7FF03A687FF55
S3158000548083A6C7FFE31AD7FEB7470002CC439C43E7
S31580005490930600020D8FB387F640B3B6F6003385C8
S315800054A0C700B337F500158F3E9773234034B7C7CF
S315800054B000021373030883A6C7FF83A587FF03A68D
S315800054C0C7FFE39AC6FEB747000283AE47009C43F8
S315800054D073104E301306803EB388C802631E0300E5
S315800054E0938888C11306803E3306A60201453D8215
S315800054F046962320C800828013060002B307F64032
S315800055003336F600B386D641BE95B3B7F500918E95
