S00B00006173702E73726563D5
S315800000009711050093810180177500001305055827
S315800000100321050017750000130585570C412E91A5
S315800000201385C18297550500938545CE6377B500C4
S31580000030232005001105E36DB5FE17750000130535
S315800000406558970505009385E5FB1776000013062E
S315800000506657637AC5008322050023A055001105E3
S315800000609105E36AC5FE6F20D03F1D71976700003A
S315800000709387C7483EC297670000938767483EC408
S315800000809767000093870748CAC886CEA2CCA6CABF
S31580000090CEC6D2C4D6C2DAC05EDE62DC66DA6AD882
S315800000A02A893EC6EF40E06D634705221307F9FFB4
S315800000B0931727001418B69783AB47FD975405000E
S315800000C09384449D096C0144175B0500130BCB9CFC
S315800000D09769000093890926976A0000938ACA4324
S315800000E0BA94130A7002176D0000130DAD4A130CF3
S315800000F00C71976C0000938C2C4505045E87A28654
S315800001004A86D6851545EF10400C02C082470327E4
S315800001100B0063F8E700824785073EC08247E3EC21
S31580000120E7FE83C70400238004009387D7FA93F7FA
S31580000130F70FE364FAFC8A07CE979C43CE978287B3
S31580000140EF50407D635005022A87976600009386AC
S31580000150E6461306D00B976500009385253B0D4533
S31580000160EF10401C4A86976500009385A543154588
S31580000170EF10A00502904A86976500009385C53BDF
S315800001801945EF108004EF30300A6347051289471E
S315800001903EC897670000938767373ECC0C08930765
S315800001A0200A01453ECE66D0EF1000554A869765F7
S315800001B000009385A5391945EF102001EF301043D3
S315800001C0E35D05F22A8797660000938666381306F4
S315800001D0500A97650000938565330D45EF108014AE
S315800001E029BF4A86976500009385C5391945EF0072
S315800001F0D07DEF404051E35205F02A879766000094
S31580000200938686381306100B976500009385053014
S315800002100D45EF102011D5B519454A869765000022
S3158000022093850535EF00707A6285EF40A025E35609
S3158000023005EC2A87976600009386C6331306D00A94
S31580000240976500009385852C0D45EF10A00D75B53B
S315800002504A86EA851945EF005077EF408052E35E83
S3158000026005E82A8797660000938606331306500BA7
S3158000027097650000938585290D45EF10A00AB5BDC9
S3158000028019454A86976500009385452DEF00F073E2
S315800002906285EF30F03EE35205E62A8797660000D6
S315800002A09386062C1306900A97650000938505268B
S315800002B00D45EF10200791B52A8797660000938633
S315800002C0E6271306100A97650000938525240D45B9
S315800002D0EF1040056DBD2A87976600009386C62B72
S315800002E01306700997650000938545220D45EF102A
S315800002F060036DBB397122DC26DAAA862E862A84B3
S31580000300AE841545976500009385052C06DEEF00C3
S31580000310D06B174705001307A77702C6B247184365
S3158000032063F8E700B24785073EC6B247E3ECE7FECF
S315800003309317040163C70700F2506254D2542161B7
S3158000034082802686976500009385051F1945EF00F4
S31580000350D067EF30606D634A050289473EC897676C
S3158000036000009387A71A3ECC9307700D3ECE0C08EB
S31580000370976700009387471D01453ED0EF10C03731
S31580000380F2506254D254216182802A879766000097
S315800003909386C61A1306600D976500009385051728
S315800003A00D45EF00307855BF79712A8622D497653E
S315800003B000009385A5232A84154506D626D24AD0E1
S315800003C0EF00B060EF50807185476309F50097654F
S315800003D00000938565241145EF00305FEF50A072D1
S315800003E085476309F500976500009385E5251145E6
S315800003F0EF00B05DEF50606FAA84EF5000702A89DD
S31580000400EF4080432A872686CA86976500009385B3
S31580000410A5261945EF00705B2285EF50101DAA8432
S315800004202285EF503020AA86268697650000938520
S3158000043025271945EF0070592285EF50B01E0A8492
S3158000044015E12285EF508046634205060245A16587
S31580000450EF40C01F63400508B2502254925402599F
S315800004604561828097650000938545251545EF0097
S31580000470D055EF2010016343050889473EC0976732
S3158000048000009387A7080A843EC49307600F3EC680
S31580000490A285976700009387270B01453EC8EF101A
S315800004A0A0252285EF508040E35205FA2A8797657A
S315800004B000009385A5050D45976600009386062363
S315800004C01306900FEF0010660245A165EF400018F5
S315800004D0E35405F82A8797660000938666221306FA
S315800004E0A00F97650000938565020D45EF00906328
S315800004F0B250225492540259456182802A87976667
S3158000050000009386E61D1306500F976500009385BD
S31580000510E5FF0D45EF0010618DB74111254506C6F3
S31580000520EF50602B634F05002945EF50C02A634D7D
S3158000053005022D45EF50202A634B0504B240410148
S3158000054082802A87976600009386461D0D4513068E
S31580000550701097650000938565FBEF00B05C2945B8
S31580000560EF506027E35705FC2A879766000093863D
S31580000570661C0D451306801097650000938505F966
S31580000580EF00505A2D45EF500025E35905FAB24049
S315800005902A87976600009386661B130690109765D8
S315800005A000009385A5F60D4541016F00B0574111B6
S315800005B0254506C6EF502022634F05002945EF509A
S315800005C08021634D05022D45EF50E020634B0504E5
S315800005D0B240410182802A8797660000938606147E
S315800005E00D451306401197650000938525F2EF00AF
S315800005F070532945EF50201EE35705FC2A879766DE
S315800006000000938626130D4513065011976500004A
S315800006109385C5EFEF0010512D45EF50C01BE35970
S3158000062005FAB2402A87976600009386261213063B
S31580000630601197650000938565ED0D4541016F005A
S31580000640704E1D71A2CC85452A841305F00786CE8F
S31580000650A6CACAC8CEC6D2C4D6C2EF10E027634C9B
S31580000660056E228697650000938545131545EF0034
S31580000670D0350545EF1080392A84634B0564930590
S3158000068000510545EF102072634D0566B7470F0090
S3158000069093870724080817470500232FF73EEF4066
S315800006A07001634B056802C6174705001307C73EEE
S315800006B0B247184363F8E700B24785073EC6B2479C
S315800006C0E3ECE7FE4808EF40E07E63440570D247DE
S315800006D0424709453387E740B787D717938707404F
S315800006E0B3D7E70213D727009746050023A6F63A25
S315800006F09747050023AEE738EF306012634B056AF3
S315800007000D45EF30C011634705681145EF30201164
S3158000071063430566056A854409499769000093899C
S31580000720A916176400001304E4CA130A8A38974A84
S315800007300500938A2A360546930571000545EF1014
S31580000740004F6344050A034771009306900493079C
S31580000750F7FC93F7F70F63ECF6028A07A2979C43A0
S31580000760A29782872808EF40207A63410578680837
S31580000770EF408079634D0574F246624697650000C6
S315800007809385054A1545EF005024034771008D4730
S315800007906306F70093071005E31FF7F897650000D7
S315800007A09385854D1545EF005022EF20804D63429D
S315800007B0056489473ED097670000938727D53ED446
S315800007C0930750213ED60C10976700009387C7D7B2
S315800007D001453ED8EF005072F6406644D6444649FD
S315800007E0B649264A964A256182802A87CE8613068E
S315800007F0B01797650000938565D10D45EF0090325F
S3158000080099B78D44114905BF89440D492DB7854453
S31580000810094915B7976500009385052919452686E8
S31580000820EF00B01A85454A85EF30B0506342055EC9
S3158000083003477100A9BF19452686976500009385F1
S31580000840251CEF0090184A85EF30006FE35205FEB5
S315800008502A87976600009386A61B1306701B9765EA
S3158000086000009385A5CA0D45EF00D02B0347710084
S3158000087039BF85451305F007EF100006E35A05FAE0
S315800008802A87976600009386E6ED1306801F976594
S3158000089000009385A5C70D45EF00D028034771005A
S315800008A0FDB519452686976500009385E51BEF0003
S315800008B0D0114A85EF30B022E35C05F62A87976629
S315800008C000009386661B1306601C9765000093855F
S315800008D0E5C30D45EF001025034771004DBD194551
S315800008E02686976500009385E500EF00100E4A8501
S315800008F0EF30401EE35E05F22A87976600009386F6
S3158000090066001306001A97650000938525C00D457D
S31580000910EF005021034771009DBD19459765000082
S315800009209385851EEF00700A2545EF40506263412E
S3158000093005502945EF40B061634B05522D45EF4088
S315800009401061E35705EE2A87976600009386862016
S315800009501306801D97650000938545BB0D45EF0006
S31580000960701C0347710025B585451305F003EF001C
S31580000970B076E35F05EA2A87976600009386062CA1
S315800009801306C01F97650000938545B80D45EF0097
S31580000990701903477100E5BB1945268697650000E7
S315800009A09385850EEF0070024A85EF305023E35120
S315800009B005E82A87976600009386060E1306A01C14
S315800009C097650000938585B40D45EF00B015034704
S315800009D0710075BB19452686976500009385C50607
S315800009E0EF00A07E4A85EF30207AE35305E42A871C
S315800009F097660000938646061306201C97650000BE
S31580000A009385C5B00D45EF00F0110347710041B3E2
S31580000A1019459765000093856515EF00007B0545B0
S31580000A20EF40606DE35605E02A879766000093865F
S31580000A30A6141306C01D97650000938525AD0D4548
S31580000A40EF00500E0347710099B319459765000072
S31580000A509385C515EF006077D2850545EF40F01583
S31580000A60E35805DC2A879766000093866615130689
S31580000A70401E97650000938565A90D45EF00900A95
S31580000A800347710029B3194526869765000093852B
S31580000A90E5E1EF0080734A85EF207058E35A05D868
S31580000AA02A8797660000938666E113065019976534
S31580000AB000009385A5A50D45EF00D006034771007C
S31580000AC0F9B1976500009385250119452686EF00C3
S31580000AD0C06F89454A85EF30D025E35B05D42A87E8
S31580000AE0976600009386C6001306201D9765000052
S31580000AF09385C5A10D45EF00F0020347710041B90A
S31580000B001945268697650000938585F1EF00E06B91
S31580000B104A85EF30605C634B0532AA8626869765E8
S31580000B2000009385251A1545EF00206A034771005A
S31580000B30B9B9B3879A00A38FE7FEA9B99765000074
S31580000B40938585E819452686EF0020682C004A851E
S31580000B50EF306018634C0534A24626869765000000
S31580000B60938585141545EF0040660347710005B1EE
S31580000B7019459765000093856501EF000065054579
S31580000B80EF40E065E35605CA2A879766000093869C
S31580000B90A6001306001E97650000938525970D45D0
S31580000BA0EF00407803477100DDB619459765000070
S31580000BB093858502EF0060610545EF40501DE3593E
S31580000BC005C62A87976600009386C6011306801E8F
S31580000BD097650000938585930D45EF00A0740347C4
S31580000BE0710075B61945268697650000938505CEF2
S31580000BF0EF00A05D4A85EF20705A63480528AA86D3
S31580000C002686976500009385A5081545EF00E05B6D
S31580000C1003477100ADBE976500009385A5CF194542
S31580000C202686EF00805AA5454A85EF20D07BE35182
S31580000C3005C02A8797660000938686CF1306401ADA
S31580000C40976500009385858C0D45EF00A06D034761
S31580000C50710035BE97650000938585CF1945268638
S31580000C60EF00A056A9454A85EF20F077E35205BCF0
S31580000C702A8797660000938666CF1306801A976543
S31580000C8000009385A5880D45EF00C0690347710074
S31580000C90FDBC97650000938565CF19452686EF00D4
S31580000CA0C052AD454A85EF201074E35305B82A87B4
S31580000CB097660000938646CF1306C01A9765000094
S31580000CC09385C5840D45EF00E06503477100C1B487
S31580000CD093178501E187130770FDE382E79AEF009A
S31580000CE020692A8697650000938585AD0D459356C4
S31580000CF08440E129930500510545EF10C00AE3576A
S31580000D0005982A8797660000938606AE0D451306DA
S31580000D10B013975500009385657FEF00A060B747B5
S31580000D200F00938707240808174705002326F7D660
S31580000D30EF404018E35905962A8797660000938608
S31580000D4026AF13068016975500009385257C0D45A2
S31580000D50EF00405D89BA2A8797660000938686A051
S31580000D601306B012975500009385457A0D45EF001E
S31580000D70605B6FF01F8F2A87976600009386C6AFE9
S31580000D801306501797550000938545780D45EF005B
S31580000D90605949B22A87976600009386E6AC1306A7
S31580000DA0401797550000938565760D45EF0080576F
S31580000DB0A9BA2A8797660000938606AA1306301773
S31580000DC097550000938585740D45EF00A0556FF00B
S31580000DD03F932A87976600009386C6A61306A016B9
S31580000DE097550000938585720D45EF00A0536FF0EF
S31580000DF01F8E2A87976600009386868E130640216B
S31580000E0097550000938585700D45EF00A05155B22A
S31580000E102A87976600009386A6CA1306E01C975514
S31580000E2000009385A56E0D45F5290347710085B2AF
S31580000E302A87976600009386E6CE1306601D97552F
S31580000E4000009385A56C0D45F129E5B42A87976640
S31580000E5000009386E6BD1306B01B97550000938568
S31580000E60E56A0D45C121034771006FF05F922A87BD
S31580000E7097660000938686CC1306701D97550000F2
S31580000E809385C5680D45792955BC2A8797660000E4
S31580000E909386C6A413069019975500009385056717
S31580000EA00D454921034771006FF07F8E2A8797662B
S31580000EB000009386E6B21306001B975500009385C3
S31580000EC0E5640D458521034771006FF05F8C2A87A5
S31580000ED097660000938686D31306E01E975500001A
S31580000EE09385C5620D453D296FF01F892A879766D0
S31580000EF00000938666D01306D01E97550000938512
S31580000F00E5600D4505216FF09F86B378B50239718E
S31580000F105AD03E8B22DC4AD84ED652D456D206DEE2
S31580000F2026DA5ECEBA8A4289368A0544930941001A
S31580000F302D48B357B502B29803C708002302E100D3
S31580000F406361B5020504B38689003E8533F7B7022F
S31580000F50329703470700B3D7B702A38FE6FEE311A4
S31580000F6004FF638B0A04B3374001330AFA406305F2
S31580000F700B001305D002029963774405930B000298
S31580000F8063190B04A28485045E850299E3ED44FF10
S31580000F90639B0A024E940345F4FF7D140299E39CF9
S31580000FA089FEF2506254D2544259B259225A925A08
S31580000FB0025BF24B21618280E37E44FD930B00024B
S31580000FC0E3020BFC39A0E3170BFC1305D002029950
S31580000FD0D1B7930B00037DB7797122D426D24AD03C
S31580000FE04ECE52CC56CA5AC85EC662C466C206D6B1
S31580000FF06AC02A8C2E89B28413045002130B000314
S31580001000A54C930AC006130A4006976B0000938B83
S31580001010EBCC9309300703450C0001C963058502B3
S31580001020050C829403450C0075F9B25022549254F3
S315800010300259F249624AD24A424BB24B224C924CF6
S31580001040024D4561828003461C00630D660D090CC6
S315800010508147130706FD1377F70F814663E2EC029B
S3158000106013972600BA968606050CB2960346FCFFB1
S31580001070938606FD130706FD1377F70FE3F2ECFE62
S3158000108063075603630A46036368CA04630F860AC6
S31580001090637FC40213078005630DE60A9307300653
S315800010A0E31BF6F60345090011098294ADB70346A2
S315800010B00C00050CE31A46FD032509001109634659
S315800010C0050A268801475E86A9458135A9B7133664
S315800010D01600330CCC4081B7630B360563FFC9001D
S315800010E013075007631BE60203250900268801477C
S315800010F05E86A9451109113D39BF13070007E31C18
S31580001100E6F00325090026880147176600001306C6
S31580001110A6BDC1451109D53BFDBD13078007E30276
S31580001120E6FED5BD03462C0085470D0C1DB7032D65
S315800011300900110903450D00050DE30E05EC8294A7
S3158000114003450D00050D65FDF9B513055002829422
S31580001150D9B50325090026880147176600001306BE
S31580001160E6B9C145110955337DB53305A0402688BA
S3158000117005475E86A945513B79BD1C4185462A8730
S31580001180638ED7008946639AD7002E86930585009D
S31580001190176500001305C5B781B5828008452E8680
S315800011A09305C70015BD011122CC2AC62E842E8632
S315800011B0176500001305C5B76C0006CE313D29457D
S315800011C00294F2406244056182801D7106DE22DC53
S315800011D026DAB2C4BECAC2CCC6CE8547B6C6BAC89F
S315800011E03EC883C70500130E81042ECC72C60548FF
S315800011F09548130350022546930FC006130F4006E9
S31580001200930E30079304500713048007930000075A
S31580001210930380059302300689CB63E80801638DCA
S315800012206700850583C70500EDFB0C08F121F250A8
S315800012306254D2542561828083C6150013872500A7
S31580001240938706FD93F7F70F636BF60005078346D2
S31580001250F7FF938706FD93F7F70FE379F6FE63852D
S31580001260F6076385E605636BDF0063817604638D2D
S315800012705600C5C683470700BA8579BF6386D601FF
S3158000128063E2DE02E39816FE83260E00931728009B
S315800012900C18AE9723A4D7FE83470700110E0508C6
S315800012A0BA859DBF63849600E39686FC83260E00EE
S315800012B0BA85931728001818BA9723A4D7FE110E5B
S315800012C083C70500050889BF834707009305170074
S315800012D06388E703637AFF006386D70163EEFE00C7
S315800012E0639917002E874DB7638C7700E38C57FE82
S315800012F085CB834717000DB763849700E39B87FEF2
S3158000130083260E00931728001818BA9723A4D7FEB1
S31580001310110E83C70500050801B78347F7FF7D17C0
S31580001320BA85DDBD397152D42A8A3A8506DE22DC39
S3158000133026DA4AD84ED6AE843289B6893A840D28C2
S3158000134085472AC63EC021848A85528597670000D4
S315800013509387879F22C84ECA4ACC26CE3EC4692E22
S31580001360F2506254D2544259B259225A2161828033
S315800013701305A5031375F50F9307A00363EAA7006A
S31580001380976700009387479F0A053E9508418280AC
S3158000139017650000130505AD8280011106CE22CCAB
S315800013A026CA4AC84EC6AE89EF108042130500028F
S315800013B0EF10004271442549F154B3D78940BD8B63
S315800013C07114138507036354F90013857703EF10AF
S315800013D02040E31494FE6244F240D2444249B2492A
S315800013E0294505616F10C03E973705009387076BC7
S315800013F017670000130707B398C323A407008280EA
S31580001400797122D41304F5FF1204173505001305EC
S31580001410E5682A94184006D64CC014430844B9CED1
S31580001420B7270191D0470C474D8ED0C790470C47C0
S315800014304D8E90C71047CC5F1346F6FF6D8ED0DF7A
S31580001440905F0328870085453366060190DF9737CE
S3158000145005009387E7779C43716613060620B3D70A
S31580001460C702FD179CCEC16785079CC6CCC60CC437
S3158000147019C9096513050571EF1080192285B250C7
S315800014802254456182804843EF40407A7DD1894726
S315800014903EC0976700009387A7A93EC49307900B29
S315800014A03EC68A8597670000938707AB01453EC88D
S315800014B0A124C1B71C45411122C406C62A8499E7D6
S315800014C023240400B2402244410182801C41C84347
S315800014D0EF40206BB24023240400224441018280E5
S315800014E041117D1522C44AC01314450017390500E1
S315800014F01309C95A26C2B3048900904006C61C4205
S31580001500D84B93864701098B01CFDC43DCC463C685
S315800015100702C840EF0090199C409C439386470180
S315800015209842944B9377170099C3858A99EAB2407B
S31580001530224492440249410182801C42938647019B
S31580001540C5B74A9448402244B24092440249410178
S315800015506F00300E1C419C4398436354070001453D
S3158000156082808CC3054582805C4563C807007D57B1
S3158000157093F7F70F58C53E858280FD57EDBF8547A7
S31580001580638DF50089476399F5001C4198431C4B90
S3158000159093E727001CCB828082801C4198431C4B9A
S315800015A093E717001CCB82808547638CF5008947BB
S315800015B06398F5001C4198431C4BF59B1CCB82809D
S315800015C082801C4198431C4BF99B1CCB8280FD1565
S315800015D093971500AE97176700001307A7948A079D
S315800015E0BA979843411108C31C43E3CF07FE973748
S315800015F005009387E75D9C43716713070720B3D780
S31580001600E7023EC6B2471387F7FF3AC6E5FF4101B8
S315800016108280B7270191D84737060300B706FDFFBA
S31580001620518FD8C79847FD167D15518F98C7D85FBB
S31580001630758FD8DF945F131715002A97D18E94DFA4
S31580001640973705009387C7589C43F1669386062093
S31580001650B3D7D702176500001305C58C0A072A97EA
S3158000166018438546096513050571FD171CCF14C7F8
S3158000167054C76F00F07937071040B787009111077C
S3158000168098C33707060098C79847C166558F98C78D
S315800016909843B70600C0FD16758F98C3828079710E
S315800016A085473EC03EC6A5473EC88A851767000067
S315800016B01307878B8D47154506D63AC43ECA2D2813
S315800016C0B250456182809737050023A9073A97373C
S315800016D0050023A3073A9737050023AD07389737C8
S315800016E0050023A707389737050023A107389737C2
S315800016F0050023AB07368280411106C622C47324B7
S315800017004030856793870788F3B74730973705005A
S315800017109387075F904397370500938727359C43C8
S3158000172005473317A700D0C1F98FADCF1735050010
S3158000173013054534144183AF050003AF850083AE9E
S31580001740C50003AE050103A3450183A8850103A84F
S31580001750C501939256009387C182969723A0F7017D
S31580001760D0C323A4E70123A6D70123A8C70123AAB0
S31580001770670023AC170123AE07018506FD4763E3A7
S31580001780D7049737050023A7D72E97370500938769
S31580001790E72E9C43FD4663E3F604850797360500EE
S315800017A023AEF62C973705009387072C884313457D
S315800017B0F5FF798D21ED73104430B2402244014506
S315800017C0410182809737050023A6072A97370500AF
S315800017D09387C72A9C43FD46E3F1F6FC97370500BD
S315800017E0938707299C4314418507173605002325CF
S315800017F0D6289736050023ADF626973705009387BA
S31580001800A72688431345F5FF798D55D52E859715DF
S315800018100000938525FCEFF05F962945EF00507B0D
S3158000182073104430B24022440145410182807326C0
S315800018304030856793870788F3B747309737050029
S315800018409387C7239C43D1C7173705001307C72241
S3158000185018439386F7FF9387C18293155700AE97F7
S3158000186003AF070083AE470003AE870003A3C7001C
S3158000187083A8070103A847018C4FDC4F2320E5018D
S315800018802322D5015CCD9737050023A9D71E2324B3
S31580001890C5012326650023281501232A05010CCDC1
S315800018A00507FD4763E2E7029737050023A6E71C95
S315800018B0973705009387C71B88439737050023A969
S315800018C0071A7310463082809737050023A6071AB9
S315800018D0C5B7130570FDF5B793C5F5FF97370500B6
S315800018E023A6A7189737050023A0B718014582803D
S315800018F073274030856793870788F3B747309736D5
S3158000190005009386A6178C42973705009387C715DF
S31580001910973605009386C61590429C4397360500F8
S315800019209386C614944293C7F7FF0CC150C114C561
S315800019305CC5731047300145828041114AC006C696
S3158000194022C426C2A9472A896317F5009384C1C297
S315800019509C48C18BA9EFEF30F07B634205089384E6
S31580001960C1C2C0589C585D8C41C09C40D854DC4B49
S31580001970BA97238027019840DC54004B850723AC17
S31580001980F1C46394870023AC01C49C5885071D8CE1
S3158000199023AEF1C413341400EF30507E6341050446
S315800019A02285B240224492440249410182803545D3
S315800019B069372A84E34605FE59DD9C40C843EF30EB
S315800019C080152A84E35905F893178501E187130763
S315800019D0D0FCE387E7FC1307F0FCE383E7FC85474D
S315800019E023ACF1C26D546DBFC840CA85A5364DF58E
S315800019F0C8408545693695BF9387C1C21757000091
S31580001A001307877098C323A407008280411126C2DA
S31580001A1006C622C44AC0AA84EF40E00E55E1854737
S31580001A206399F408EF30107C634705081389C1C2B7
S31580001A300324890011CC130470FDEF400000634C31
S31580001A4005062285B24022449244024941018280A1
S31580001A509307105123AEF1C223A001C423A201C46F
S31580001A6023A401C4238601C423A801C423AA01C4D4
S31580001A7023AC01C423AE01C423A001C6EF30906914
S31580001A8063470502CA850545EFF09F97894523A8D8
S31580001A90A1C2EFF0DFAE23AA91C223AC01C2EF3020
S31580001AA0F06DE35C05F823AC91C26D5479B76D5443
S31580001AB069B7395479B7854723ACF1C26D5451B7AC
S31580001AC01D5441B741114AC006C622C426C22A897E
S31580001AD0EF40600351E58547631DF906EF3090704E
S31580001AE0634B05061384C1C21C44930470FD81EFC9
S31580001AF0EF30B07463410506B24022442685024920
S31580001B00924441018280EF30F060AA844840EFF031
S31580001B107F9A23AA01C2EF3070666344050013D909
S31580001B20F4011C40C843EF30E0211C40634B0500A4
S31580001B308843EF302021634905008144E30A09FA8E
S31580001B4021A08843EF300020854723ACF1C2ED54B5
S31580001B5045B7B95455B7854723ACF1C2ED5469BF33
S31580001B609D5459BF011126CA4AC84EC606CE22CCFC
S31580001B7052C4AA84AE893289EF30F07855E1854720
S31580001B80639EF408138AC1C283278A00C1CF0325C6
S31580001B90CA0041ED63080902014481C883270A000F
S31580001BA0C843EF20507763470502B387890003C592
S31580001BB007006133AA84634E05020504E31F89FC8E
S31580001BC031C12285F2406244D2444249B249224A16
S31580001BD00561828093178501E1871307D0FC638AAC
S31580001BE0E7001307F0FC6386E700854723ACF1C264
S31580001BF06D5561F8F2406244D2444249B249224A64
S31580001C000561828083270A00C843EF20F054E35A97
S31580001C1005FA854723ACF1C222856DB739555DB784
S31580001C201D554DB7130570FD71BF6D5561BF797137
S31580001C304ECE52CC5EC606D622D426D24AD056CABC
S31580001C405AC8AA8B2E8AB289EF30F06B631B0514B3
S31580001C5085476391FB141384C1C21C44638E0712AB
S31580001C604844631E0512638A09060149C54A63888A
S31580001C700B001C408843EF20106A6341050EEF304D
S31580001C807049634E050A184050485C4718479306CA
S31580001C901600B29703CB070023A0D1C46394E60055
S31580001CA023A001C4444C5C50FD1423A491C493BB6F
S31580001CB0140081C7058363739706EF30304C634009
S31580001CC00508B3072A01238067011C480509858B0F
S31580001CD085E3E39E29F9BDE84A85B25022549254A1
S31580001CE00259F249624AD24A424BB24B45618280DE
S31580001CF01C40C843EF203062634005085A85353959
S31580001D00E34C05FC79F51C40C843EF20F044E352D0
S31580001D1005FC854723ACF1C24A85C1B74840C54515
S31580001D20EFF05F8319E548408545EFF05F852386B0
S31580001D3051C523A801C4EF307044E35405F88547A4
S31580001D4023ACF1C26D55E30A09F879B71C40884384
S31580001D50EF209040E34F05FA4A8541B793178501F6
S31580001D60E1871307D0FCE380E7FE1307F0FCE398D6
S31580001D70E7FCE30409F68DB793178501E18713071E
S31580001D80D0FCE382E7FC1307F0FCE394E7F8E30674
S31580001D9009F499B7395591B7130570FD3DBF6D5557
S31580001DA02DBF1D551DBF411122C426C206C62A84D9
S31580001DB0AE84EF3050551DE18547631FF40093874D
S31580001DC0C1C2984711CFC84719ED23AE91C2B24020
S31580001DD022449244410182803955D5BF1D55C5BFE5
S31580001DE0130570FDEDB76D55DDB7411122C426C2CE
S31580001DF006C6AA842E84EF3010510DE5854763917F
S31580001E00F4029387C1C2984705C3C8470DE1D84FEE
S31580001E109C5B18C05CC0B2402244924441018280DF
S31580001E203955D5BF1D55C5BF130570FDEDB76D5529
S31580001E30DDB7411122C406C6834505022A8448417E
S31580001E4099E95C5899E31C5899EF2244B24085453C
S31580001E5041016FF06FF5EFF0EFEF23000402B2401F
S31580001E602244410182801C401854DC4BBA9783C5BA
S31580001E700700EFF02FEE14401C54984A85071CD4B7
S31580001E806394E700232404021C586308F700FD17B7
S31580001E901CD8B240224441018280C842EF2090394A
S31580001EA01C58E35605FE054758C4D5B7411122C4D0
S31580001EB02A84484106C6EFF02FEB1C481375F50FB0
S31580001EC013F7071025C34D476301E50A585829EFD4
S31580001ED0C5476305F5041C40544C98476380E60467
S31580001EE0184CDC47BA972380A70018401C4C14472F
S31580001EF085071CCC6381D7085C4CC9C31848850705
S31580001F005CCC1377074019CB585009EB184014471F
S31580001F10139716003697098363FBE706B24022447F
S31580001F2041018280585845DB45476305E50093F7B4
S31580001F300720D5D31C58232A0402EDD31C401854FD
S31580001F404840DC4BBA9783C50700EFF0AFE035C158
S31580001F5014401C54984A85071CD46389E7041C588E
S31580001F606300F706FD171CD855BF85475CD8B2407D
S31580001F70224441018280232C0400BDBF0843EF2008
S31580001F80702B5C4CE35C05F6054758C485BF48401A
S31580001F90CD45EFF02FDC01E948408545EFF02FDE97
S31580001FA0CD472300F40285475CD08DBF23240402ED
S31580001FB07DB748402244B240854541016FF02FDC11
S31580001FC0C842EF2030271C58E35E05F8054758C401
S31580001FD051BF85476305F50081473E85828013871B
S31580001FE0C1C21C47FDDB145B8147E5DA1C431457ED
S31580001FF0DC4BB69783C707002380F50014431C5734
S31580002000944A850723AAF1C46388D700185BAA87F8
S315800020107D1723AEE1C4D1B723AA01C4C5BF011180
S31580002020973705009387C7A5A307A1008843930523
S31580002030F100054606CEEFF0FFB2F24005618280E0
S31580002040797122D406D626D24AD02A84EF30B02B94
S3158000205029E92A8997340500938484A205A0C2477A
S315800020606369F4001DE088404933634F0500B24739
S3158000207089CF0545EF200041634005020808EFF04F
S315800020803F872C00E35D05FC6D59B25022544A858A
S3158000209092540259456182801309F0FCE31625FFAC
S315800020A0EDB71D59DDB75D7186C6A6C2CAC04EDEC4
S315800020B09737050023A6A79CA2C4EFF03F958545D8
S315800020C01305F003EFF05F81173905001309499B6B
S315800020D08327090005473AC80C08175700001307DD
S315800020E0270415453ACC3ECE97040000938464F3CA
S315800020F0EFF08FE0A949014421A0C2472A9499EFC5
S315800021000808EFF0CFF2E35A05FE09C4A6852285BA
S31580002110EFF06F892945EF20E036F1BF19ECA685EF
S315800021200808EFF08F850325090005469305F10021
S31580002130A3073101EFF01FA37DBFA6852285EFF0AF
S315800021408F86F1BF5D71A6C286C6A2C4CAC04EDEA6
S31580002150973405009384C49221A00345F1008D2D08
S3158000216088409305F100B5352A8465F91709000082
S315800021701309496697590000938949FD0808EFF0CD
S315800021800FEBAA846347050205CCCA85268599C0CC
S31580002190EFF06F81C2470544F5D3CA850808EFE0A2
S315800021A0DFFD294535250808EFF06FE8AA84E35D51
S315800021B005FCB640264496440649F2596161828000
S315800021C04A8681454E85EFE03FE1C1B729A8411196
S315800021D006C6736004302E85EFE00F9DB2407370A3
S315800021E004304101828005456FF08FAF411106C6EC
S315800021F0EF00B053EF200073EF201067EF308018A8
S31580002200EF301014B24041016F30103B411101454F
S3158000221006C6EF0030200145EFF0EFCA0145EFF02A
S315800022200FC80145EFF04F9CB240014541016FF068
S31580002230AFFC4111014506C63137B2400145410127
S315800022406F009021000000000000000000000000E8
S31580002250130141FC06C00EC212C422C626C84ACA51
S315800022604ECC52CE56D05AD25ED462D666D86ADA70
S315800022706EDC973505009385E5A78841232C2500DC
S31580002280970500009385C5004CCD95A0824092416C
S3158000229022423244C2445249E249724A825A125B0D
S315800022A0A25B325CC25C525DE25D1301C1030946EA
S315800022B08345E500B3D5C540858981CD0C4991C953
S315800022C017360500130646A30C42638405006F008B
S315800022D0B0768280175500001305452B0321050033
S315800022E0175500001305C52A0C412E9109A0973574
S315800022F005009385E5968841173605001306869F67
S3158000230008C209C5032185014C4D8285F3274030DB
S31580002310973605009386869423A006009735050098
S315800023209385458B9041732046307300501073908F
S315800023304730173605001306E6920C42E5D1232076
S315800023400600973605009386669185458CC245B70B
S315800023501755000013058523032105001755000036
S31580002360130505230C412E916F00901397350500B8
S315800023709385C58E23A00500971000009380006B7F
S315800023803716000013060688732646300C45C8416A
S315800023909045028613000000130000001300000021
S315800023A0130181FAF2C4F6C6FAC8FECA975E000027
S315800023B0938ECE1D03AF0E00975E0000938E4E1D4A
S315800023C083AF0E008A8E3301FF01130181FA2ACC76
S315800023D02ECE32D006D236D43AD63ED842DA46DC33
S315800023E016DE9AC09EC2732520342AC4732F1034F9
S315800023F07AC2F32F00307EC0732E403072C676C804
S31580002400371600001306068873304630B72600005C
S315800024109386868073A006308A85112D6245F245A3
S3158000242002569250A2563257C2575258E258F2522A
S3158000243006439643173F0500130FCF82832F0F0065
S31580002440639A0F02173F0500130F4F8123200F0059
S31580002450124F824FB24E73101F3473900F307390A9
S315800024604E304241264EB64E464FD64F1301810519
S3158000247073002030124FA24E324E824F42417EC0B0
S3158000248072C676C47AC22ACC2ECE32D006D236D442
S315800024903AD63ED842DA46DC16DE9AC09EC2172568
S315800024A005001305257C23200500972505009385C7
S315800024B0E57A054690C1973505009385A5838841C1
S315800024C017360500130646821442A5C21726050054
S315800024D0130606791442630AD504130181FC0EC0E3
S315800024E012C222C426C64AC84ECA52CC56CE5AD02A
S315800024F05ED262D466D66AD86EDA232C250097051A
S3158000250000009385C5004CCDDDB382411242224442
S31580002510B2444249D249624AF24A025B925B225CE9
S31580002520B25C425DD25D1301810309468345E500B5
S31580002530B3D5C540858999C90C4989C9172605002F
S315800025401306867B0C4299C1EF00104F17250500B4
S315800025501305C57023200500B245124682467310C6
S31580002560163473900630739045306245F2450256B4
S315800025709250A2563257C2575258E258F2520643E8
S315800025809643264EB64E464FD64F130181057300AD
S31580002590203001001300000013000000130000002B
S315800025A0130181FA2ACC2ECE32D006D236D43AD630
S315800025B03ED842DA46DC16DE9AC09EC2F2C4F6C621
S315800025C0FAC8FECAF326003036C0F32540302EC640
S315800025D0B00832C8732520342AC4F326103436C294
S315800025E0371600001306068873304630B72600007B
S315800025F09386868073A006308A8597000000938034
S31580002600E0F56F00C04213000000130000000100D7
S315800026107D156356A000130525F9E34EA0FE828042
S3158000262000000000B7C7000283A687FF03A787FFC5
S31580002630E38EE6FE732600B0B7C6000283A786FF48
S31580002640998FE3EDA7FE732500B0118D3377F502E0
S315800026503355F5023E07B357F7023E053E95828015
S31580002660797106D622D426D24AD04ECE732440F132
S31580002670B707208D910732043E940440F32740F13A
S3158000268093870720B2073709008DCA9783A9070069
S315800026909307300363E89706939724001757000043
S315800026A0130787AC3E9718433AC631C7CA9783C784
S315800026B0070093F7F70F732740F1130707203207B8
S315800026C04A971CC3972705009387C7509C43F3A757
S315800026D0473004C0B2478297856793870788F3B7E8
S315800026E0473093F9F90FF32740F193870720B20714
S315800026F0CA9723A03701B250225492540259F24904
S31580002700456182802686975500009385E5C30145FD
S31580002710EFE0BFABB25004C0225492540259F24942
S3158000272045618280411106C622C4732440F1054565
S31580002730D53D2945C53D9727050023ABA7481D2CC8
S31580002740930704049E073707008DB386E7001107B9
S315800027503E9723A00600B707008D23200700138726
S31580002760470D238007008507E39DE7FE9307042036
S315800027703707008DB207BA97B240224423A00700DC
S3158000278097070000938707EE17270500232EF74A41
S3158000279041018280411106C622C4732440F1AD24D2
S315800027A0930704049E073707008DB386E700110759
S315800027B023A00600BA9723A0070001A041119755D0
S315800027C000009385A5BA014506C6EFE01FA0D9375C
S315800027D0411122C406C6A9472A84630BF500131546
S315800027E084012244B2408545618541016FE03FDE28
S315800027F085453545EFE0BFDD131584012244B2409F
S315800028008545618541016FE09FDC397122DC26DADE
S315800028104AD806DE1307F5FF930730032A84AE8471
S315800028203309C04063ECE7061D06994763E1C70A92
S31580002830732740F1935754009396270097570000CB
S31580002840938747D4B6978C438547B39687001356AC
S315800028503400ED8EB705008D2E9685C213070704CA
S315800028601E0732978345070013757400B397A70038
S3158000287093C7F7FFED8F2300F700931724003707E0
S31580002880008DBA971379F90F238027018588A5E4EF
S31580002890F2506254D25442592161828089473EC89F
S315800028A097570000938707AF3ECC9307D00F3ECE55
S315800028B00C0897570000938767B0014532C63ED013
S315800028C0EFE09FE3324699471D06E3F3C7F6894753
S315800028D03EC8975700009387E7AB3ECC9307E00F3F
S315800028E03ECE0C0897570000938707AF01453ED030
S315800028F0EFE09FE035BFF32740F1D9DA93870704ED
S315800029009E073E96034706001D88854733948700B9
S31580002910598C1374F40F23008600F2506254D254FB
S3158000292042592161828001113706008022CC4AC833
S315800029304EC603A9450083A905001354B501134665
S31580002940F6FF698E26CA0145AE84418897550000F8
S31580002950938545AB06CE3294EFE03F87A6874E87B8
S31580002960CA862286975500009385C5AB0145EFE060
S31580002970DF850D350111930700003EC6B24706CEAE
S3158000298099C3B24782978547172705002328F72CD6
S3158000299085679387078817270500232DF722F3B7C6
S315800029A04730F367443097270500239707228147EE
S315800029B09725050093858522170600001306E6F6FF
S315800029C093060002139727002E9710C38507E39B73
S315800029D0D7FEF3275030172705002325F70A9707D8
S315800029E000009387279C73905730F3670430F32752
S315800029F0103093F7070291C7996773900730735029
S31580002A003000F240056182800111930700003EC6C6
S31580002A10B24706CE99C3B247829797270500938718
S31580002A2067069C4373905730F24005618280172673
S31580002A3005000356661A9307160079711727050055
S31580002A40231CF718B707008022D493C7F7FF06D652
S31580002A50AA863377F500172405001304E41719E6D0
S31580002A6097070000938707B47390573093D7B601C2
S31580002A70C18BBA977D476362F7048A0717270500DB
S31580002A801307C715BA979C4399C336858297835790
S31580002A900400FD17C207C18317270500231EF712FE
S31580002AA099E7970700009387E78F73905730035510
S31580002AB00400B25022544561828085473EC08A8593
S31580002AC0975700009387479A01453EC436C6EFE084
S31580002AD0BFC283570400FD17C207C18317270500AD
S31580002AE0231CF70EE9F775BFB7C7000203A7C7FF18
S31580002AF003A687FF83A6C7FFE31AD7FE93060602BF
S31580002B0033B6C600B74700023297D8C394C3970737
S31580002B1000009387270117270500232FF71082804F
S31580002B20411106C622C426C24AC0F32740F19387C4
S31580002B3007203707008DB207BA97172405001304BC
S31580002B40640984431C40374700029308703E93F71C
S31580002B50F7F79726050023AFF606032847000843B4
S31580002B6097270500938747F28C43B7C700022E87C5
S31580002B7063E9B8089306050233B5A6002A98368518
S31580002B8093050730172705002320B7F083A6C7FFD4
S31580002B9003A687FF03A7C7FFE39AE6FE3306C54071
S31580002BA0E357C0FCB747000223A2070188C3F32777
S31580002BB040F1938707203709008DB207CA971147DE
S31580002BC098C31C40F3A74730EF00102F8567938783
S31580002BD00788F3B7473013F7F40FF32740F193874D
S31580002BE00720B207CA9798C31C40B240224493E795
S31580002BF0070817270500232FF7FC92440249410155
S31580002C0082809306150233B5A6002A98138785C15C
S31580002C103685BDB7B7C7000203A7C7FF03A687FFE0
S31580002C2083A6C7FFE31AD7FE9306060233B6C6000D
S31580002C30B74700023297D8C394C39307003017274B
S31580002C4005002323F7E497070000938727EA1727D1
S31580002C5005002323F7FE828093070008F3B74730E9
S31580002C608280411106C6EFF0FFABF92DEFF00FD849
S31580002C70EFF0CFD98547172705002329F7E0EFF036
S31580002C806FE5411106C6F32740308567938707882D
S31580002C90F3B747309727050023AA07DEEFF04FEBFF
S31580002CA0411106C6EFF0EFD8EFF0DFAE797122D48E
S31580002CB006D617240500035464031DCC9377F40FBE
S31580002CC08146B1CF1377F40009E711809106137717
S31580002CD0F400174400001304A47B3A948347F4FF5E
S31580002CE0B2502254B6978E07172705001307C7F7E9
S31580002CF0BA9788434561828089473EC097470000DE
S31580002D009387077A3EC49307C00A3EC68A8597474B
S31580002D1000009387277A01453EC8EFE0FF9D21801A
S31580002D20A1464DB70346D500972605009386C6F380
S31580002D30AA8713173600BA96CC42054714C14CC1F0
S31580002D40172505001305C5F117280500035808FA4D
S31580002D503317C7000841336707019CC1DCC2972639
S31580002D6005002395E6F819C50347D5000145636339
S31580002D70E600828017270500130707F70843172701
S31580002D800500232FF7EC828079714AD006D622D4AB
S31580002D9026D28344D50018415441172905001309CA
S31580002DA0A9EC9397340098C2CA97904354C3630F93
S31580002DB0F602972705009387A7EA9C436389A700B5
S31580002DC00145B25022549254025945618280B250D4
S31580002DD0225497270500938727F188439727050074
S31580002DE023A0C7E892540259456182805C422A84B6
S31580002DF06305F60289473EC0974700009387876C34
S31580002E003EC4930770093EC68A859747000093871C
S31580002E10A76C01453EC8EFE03F8E8547B394970087
S31580002E20972705009387C7E317270500035707EC05
S31580002E3093C4F4FF9C43F98C17270500231897EA5F
S31580002E40E39087F8814799E817270500232AF7E05A
S31580002E5097270500938747E98843A5B793F7F40F2B
S31580002E60814699E3A180A14613F7F40009E7918092
S31580002E70910613F7F4009747000093876761BA9726
S31580002E8083C7F7FFB6978E073E99832709006DBFE4
S31580002E9018458347E500230605005847E59B230729
S31580002EA0F500A306E5002328050082800C4503462D
S31580002EB0D500AA87D84988491318360085459726AC
S31580002EC00500938666DAC2962386B700CC422A9797
S31580002ED098CF17F7FFFF1307A749D8CF1725050007
S31580002EE0130505D8054794C317280500035808E03D
S31580002EF0CCC33317C7000841336707019CC1DCC2C6
S31580002F00972605002394E6DE19C50347D5000145BB
S31580002F106363E6008280172705001307E7DC084312
S31580002F2017270500232EF7D28280854701111727A0
S31580002F3005002323F7DC172705002327F7DA172751
S31580002F400500232907DA17270500232B07D0172723
S31580002F500500232907D017270500232B07D806CE7F
S31580002F6022CC26CA4AC84EC652C4972705009387E4
S31580002F70A7CF17270500130727D7DCC39CC3A10754
S31580002F80E31DF7FE974700009387876303A9070031
S31580002F9097270500239C07D4630A090497440000F9
S31580002FA09384442F0144172A0500130A6AB8974967
S31580002FB000009389692F9C4005049104FD179607AC
S31580002FC03305FA008346E500CE97D0479843E19AC9
S31580002FD01CC523060500A306C5002307D5002328A4
S31580002FE005009377270099EBE31789FCF24062444A
S31580002FF0D2444249B249224A05618280453DE31C5A
S3158000300089FAEDB7397106DE22DC26DA4AD84ED641
S3158000301052D48347C5008349D500A306B50013F76C
S31580003020170025CF1841544193973900172A050078
S31580003030130A8AC398C2D297904354C32E892A848E
S31580003040638AC70A9724050083D444CA9317390034
S31580003050D297D443054733172701D98C1727050004
S31580003060130707C01CC054C01843C20480C2C18065
S31580003070C0C397270500239B97C6630E870A83479D
S31580003080D700636FF9040147F2506254D254425913
S31580003090B259225A3A852161828093F787077D4704
S315800030A0E373F7FE5C49D4439C469C43858BE1DF02
S315800030B05041184118C29C4250C30346D5006396BE
S315800030C0F60001A89C436386F60003C7D700E37B1E
S315800030D0E6FED4431CC1014754C188C2C8C36DB73C
S315800030E09727050023AE87B6972705009387C7BF26
S315800030F0984359BFD8436385E70289473EC09747BF
S3158000310000009387273C3EC4930770093EC68A8594
S31580003110974700009387473C01453EC8EFE0CFDDE7
S315800031208544B394340193C4F4FF9727050083D76D
S31580003130E7BBFD8C21BFE36839F5B1C493F7F40F83
S315800031408146ADC713F7F40009E79180910613F71E
S31580003150F400974400009384A433BA9483C7F4FFA1
S31580003160B6978E073E9A83270A00172705002329DC
S31580003170F7AEE30AF4F0972705009387E7B69C43FA
S31580003180054799F309B789473EC09747000093875B
S3158000319027313EC49307C00A3EC68A8597470000FA
S315800031A09387473101453EC8EFE00FD5A180A14600
S315800031B051BF97270500938727AB0E053E951C4187
S315800031C06300F50498436300A70218C148C35841B9
S315800031D0972605009386C6A888C3D8C394421CC385
S315800031E05CC16384F600014582801C411727050077
S315800031F0130787AF0843172705002323F7A6828086
S315800032005C41E302F5FE797189473EC0974700002D
S315800032109387472B3EC4930770093EC68A85974796
S3158000322000009387672B014506D63EC8EFE0CFCCDA
S31580003230B250014545618280797126D29724050076
S31580003240938444AB9C4017270500130767AA22D4B2
S31580003250004303C7E7004AD04ECE52CC56CA5AC85E
S315800032605EC662C466C206D66D9B056C884B238794
S31580003270E700933B1400172B0500130B2B9E972A10
S315800032800500938A2A95172A0500130AEAA6972924
S3158000329005009389E99C130C0C880549B70C008DB1
S315800032A019A0884B3DCD172705002329079A23A807
S315800032B0070003A70A00732747309C47CC43DC4F9F
S315800032C0829783270B0099E7F3374C3097270500C1
S315800032D023A6279983270A0089EFF32740F193874E
S315800032E00720B207E69723A007009727050023A5A6
S315800032F027A19C4017270500232C879E83A60900BB
S3158000330003C7E700172605002320769F6D9B23873A
S31580003310E700E388D7F851F4EFE09FF39C40884BB1
S3158000332059F103C7E700B250225413674700238739
S31580003330E70092540259F249624AD24A424BB24B52
S31580003340224C924C456182809727050023AA079AD2
S315800033509727050023A4079A854717270500232367
S31580003360F79A9727050023A1079A8280854763FFEE
S31580003370A706935615001387F6FF17160500130642
S3158000338066760E07B307E600172805001308089728
S31580003390032E08009C43B385C541B387C74163F7B5
S315800033A0F504854E09A8832703003685B387C74170
S315800033B063FCF502C6863308E600032308009307FC
S315800033C0F5FF8E07B29723A067000328480093D89D
S315800033D016001387F8FF23A207010E072320A800F3
S315800033E03303E600E391D6FD36858280AA8636854C
S315800033F08280972705009387279103AE070093164F
S3158000340015006364DE08972705009387278F83AEB0
S315800034100700971805009388E86CB385D5411DA8E9
S31580003420032703003307D7416376C704B6873A86F6
S315800034301307F5FF8E070E07C69746979316180053
S315800034406375B604904310C3DC435CC388C342856E
S31580003450636DDE029387F6FF139737001396360067
S3158000346046973383C8001043138816003306D64127
S31580003470E3780EFB1307F5FF36888E070E07C6978F
S31580003480469793161800E36FB6FA82809727050051
S315800034909387878783AF0700854713861F00172783
S315800034A005002323C78663FBC70813571600930EB0
S315800034B0F7FF971605009386E66213983E00B3875A
S315800034C00601972805009388688383A208009C4399
S315800034D0B3835540B387574063FDF306411122C637
S315800034E0054411A883270F003A869A8EB3875740E2
S315800034F063FEF3027287B388060103A80800930768
S31580003500F6FF8E07B69723A0070183A84800135EAF
S3158000351017001303FEFF23A217011318330023A0FD
S31580003520C800338F0601F68FE31E87FA8E0FFE964C
S3158000353032448CC2C8C218C1410182803287971634
S3158000354005009386265A8E0FFE968CC2C8C218C175
S3158000355082803287CDBF411126C29714050093849D
S31580003560A47A984022C4171405001304A4577D1723
S31580003570131337000841B307640006C69716050083
S3158000358023A4E6788C435DCB0546637EA60A9358D2
S3158000359015009386F8FF93973600171705001307D3
S315800035A0E7753308F400032E0700032F0800B38E57
S315800035B0C5413307CF4163F8EE081307F5FF0E07C1
S315800035C022972320E701832548004CC388C1638363
S315800035D0C80A09811307F5FF0E073306E400104277
S315800035E03306C64163FBCE08854719A80326080023
S315800035F0AA889306F5FF3306C64163FACE062E8562
S315800036003306E400032806008E06A29623A0060150
S315800036105042935515001387F5FFD0C20E0723201D
S3158000362016013308E400E313F5FC81473307640091
S315800036301443A29794C35843D8C308C3B2402244C4
S31580003640924441018280753398409307F5FF8E0737
S3158000365013133700330764001443A297B24094C310
S31580003660584322449244D8C308C341018280939729
S315800036703600CDB70545814755BF4685E1BF1C411C
S315800036801717050013070746FD178E07BA97884355
S3158000369017170500130787669717050093878766B0
S315800036A018439C43B306E5403387E7406374D700ED
S315800036B01D8D828001458280397106DE22DC26DA04
S315800036C04AD84ED652D49717050083D7E7506384DD
S315800036D0071297170500938767589C43EDEB85671C
S315800036E093870788F3B747309717050093878761D5
S315800036F0904397140500938424619C408546130764
S3158000370016009715050023ABD5549716050023A9F7
S31580003710C65E9716050023A7E65ED9C3171905006E
S315800037201309C95D171405001304C43B83260900D9
S315800037301840B305D640158F63E4E5069719050052
S315800037409389095C19A88326090003A609001840F5
S31580003750B305D640158F63E5E504FD17139737004B
S3158000376022979716050023A1F65A0545032A440099
S315800037700C4391CFBD3998409307F5FF8E070E070E
S3158000378022971443A29794C35843D8C308C3832768
S315800037904A0003258A0082979C40D5F703A6090034
S315800037A09717050023AC074A9717050023A8C75427
S315800037B097170500938707429C43F3A74730F2503B
S315800037C06254D2544259B259225A21618280894721
S315800037D03EC0974700009387E7D13EC493075016B3
S315800037E03EC68A8597470000938747D301453EC8E2
S315800037F0EFD09FF0EDB589473EC09747000093878D
S3158000380067CF3EC4930740163EC68A859747000019
S315800038109387C7CF01453EC8EFD01FEE5DBD4111EE
S3158000382006C622C49717050083D7073BE9E3971797
S3158000383005009387A74280435DE8635FA0009747B2
S3158000384000009387E7D79C4363D7A7063954228520
S31580003850B24022444101828075F99717050093870B
S3158000386067498843856793870788F3B747308347D7
S31580003870C50005479716050023A2E63EADC38347DC
S31580003880E50013F717001DC3130450FD97170500B5
S3158000389023A6073C971705009387C7339C43F3A756
S315800038A047302285B24022444101828093E7170047
S315800038B02307F500E1BF7D159717050093874727F6
S315800038C016053E95856793870788F3B74730834704
S315800038D0C50005479716050023A2E638CDF3EFF01D
S315800038E0EFDC19E101445DB7EFE09F9645B71D54C3
S315800038F04DBF411106C622C426C29717050083D73D
S31580003900A72DC9CB9717050093874735804359E084
S315800039106354A00897470000938787CA9C4363CD6A
S31580003920A70685677D1593870788F3B7473097176E
S3158000393005009387E71F16053E958347C500854496
S3158000394017170500232C973095CF8347E50013F78B
S31580003950170005C7130450FD9717050023A00730ED
S3158000396097170500938707279C43F3A7473022853F
S31580003970B240224492444101828093E71700230794
S31580003980F500D9BFEFF08FD261D99717050023AB29
S31580003990972CD9B71D54E1BF3954D1BF17170500ED
S315800039A003578723AA872DEF171705001307072BC1
S315800039B018433DE7635BA00017470000130747C025
S315800039C0184339556356F704828029ED9717050009
S315800039D0938747329C4305671307078873374730B9
S315800039E003C5E70005479716050023A9E626137742
S315800039F0E5FF9716050023A306262387E70097177A
S31580003A0005009387271D05899C43F3A7473082804D
S31580003A10FD1796071715050013058511AA9765BF2B
S31580003A201D558280395582809717050083D7C71A1E
S31580003A3099C31D55828097170500938727229C433B
S31580003A40411106C622C499EB856793870788F3B729
S31580003A5047308547171705002322F720971705005B
S31580003A60938707299C4389C79717050023A20728B0
S31580003A7097170500938747289C4385E3F32740F1F2
S31580003A80938707203707008DB207BA9723A00700D0
S31580003A908547171705002321F726171405001304F9
S31580003AA064250840854717170500232FF722EFF076
S31580003AB0AFAD0840EFF0CFBD08408347E50013F770
S31580003AC0170019E3EFE0BF82F99B2307F500EFF0BB
S31580003AD0EFBDCDBF011106CE22CC26CA4AC84EC63E
S31580003AE09717050083D7470F6399070E9717050029
S31580003AF09387C71683A907006391090E6351A00EA9
S31580003B00974700009387C7AB9C4363CAA70C971758
S31580003B1005009387271E7D159C431314550017199E
S31580003B2005001309E900B3048900638C970A856749
S31580003B3093870788F3B7473083C7C400054797162E
S31580003B40050023ADE61095E7930970FD97170500EC
S31580003B5023A60710971705009387C7079C43F3A7EB
S31580003B604730F24062444E85D2444249B2490561AB
S31580003B70828013F7170029E713F7270019CF93F7E9
S31580003B8087073D476376F7009C40D8401CC3D8C35F
S31580003B90DC48884319C1EFF01F9C2685EFF04FAFB4
S31580003BA04A948347E40013F717004DD3F99B268583
S31580003BB02307F400EFF08FAF51D9EFE06FE979B7C3
S31580003BC02685EFF06F9C2685EFF08FAC4A9483476D
S31580003BD0E40013F717003DDBD1BF9D5959B7B9599A
S31580003BE049B79159BDBF171705000357E7FE71EF17
S31580003BF01717050013078706184361EBAA876355D5
S31580003C00A002174700001307A79B18433955634640
S31580003C10F7064147636FB70AFD1796071715050024
S31580003C20130505F1AA9719A85DE1C1473D5563E7DC
S31580003C30B704971705009387E70B9C431386F5FF18
S31580003C4099E19847504705671307078873374730C8
S31580003C5003C7C70085469715050023A1D500130520
S31580003C6070FD11EF9717050023AA07FE9717050029
S31580003C70938747F69C43F3A7473082808280411121
S31580003C80B2853E8506C6EFF0EFB719ED97170500AA
S31580003C9023A607FC971705009387C7F39C43F3A7D2
S31580003CA04730B24041018280EFE08FDA97170500F6
S31580003CB023A607FA971705009387C7F101459C430A
S31580003CC0F3A74730B240410182801D558280395525
S31580003CD082803D558280171705000357E7EFAA8734
S31580003CE045EB17170500130767F7084355E1635B34
S31580003CF0F000174700001307A78C18436355F70693
S31580003D0039558280F5FF971705009387A7FE0567CB
S31580003D109C43130707887337473003C7C700854618
S31580003D2017160500232CD6F20DC383C7D700850747
S31580003D309CC19717050023A307F297170500938761
S31580003D4067E99C43F3A7473082809717050023A72E
S31580003D5007F0971705009387E7E7130570FD9C43E7
S31580003D60F3A747308280FD1717170500130747DC36
S31580003D709607BA970567130707887337473003C7CF
S31580003D80C700854617160500232AD6EC5DDF71BF6E
S31580003D901D5582809717050083D707E4B1E79717EB
S31580003DA005009387A7EB984321E385679387078868
S31580003DB0F3B74730971705009387C7F39C4385462B
S31580003DC017160500232CD6E89C47DC431CC19717A1
S31580003DD0050023A507E8971705009387A7DF9C436F
S31580003DE0F3A747303A8582801D57EDBF97170500A8
S31580003DF083D787DEC1E797170500938727E6884331
S31580003E0035ED97170500938727EE9C43A5CB0111C7
S31580003E10856706CE22CC93870788F3B74730171479
S31580003E200500130424ED184085479716050023A73F
S31580003E30F6E28347E70093F627009DC2F59B2307AA
S31580003E40F7009717050023AB07E0971705009387C0
S31580003E5067D89C43F3A74730F2406244056182806D
S31580003E60A9472306F7003A85EFE01FF21C40780049
S31580003E7002C6D8CBEFE0CFBD3245E1B71D55828073
S31580003E809717050083D747D5C5E79717050093870A
S31580003E90E7DC984351EF971705009387E7E49C4347
S31580003EA0C1CBFD576348F508856793870788F3B7C5
S31580003EB04730971705009387E7E39443854717169E
S31580003EC00500232DF6D883C7E60013F627000DE2FA
S31580003ED01307E0FC15E19717050023A107D897176C
S31580003EE00500938727CF9C43F3A747303A85828086
S31580003EF0F59B2387F600C5B7011106CEA947238611
S31580003F00F6002A864C000A85EF202001EFE04FB4A8
S31580003F109717050023A407D497170500938787CBA7
S31580003F2002479C43F3A74730F2403A850561828079
S31580003F301D576DBF3D575DBF411106C622C49717F9
S31580003F40050083D767C9F1EB97170500938707D1DB
S31580003F50804361E4635FA0009737000093874766DC
S31580003F609C4363DCA70639542285B2402244410132
S31580003F70828075F9971705009387C7D78843856729
S31580003F8093870788F3B747308347C5000547971659
S31580003F90050023A5E6CC9DE3130470FD9717050065
S31580003FA023AE07CA971705009387C7C29C43F3A71A
S31580003FB047302285B24022444101828093F78707A9
S31580003FC021476384E7048347E50013F727001DEB49
S31580003FD093E727002307F500D1B77D1597170500CE
S31580003FE0938707B516053E95856793870788F3B748
S31580003FF047308347C50005479716050023A0E6C6C8
S31580004000C1DF6DBF130450FD51BFEF10D07A19E1A7
S31580004010014469B7EFE0CFA351B71D5459BF411191
S3158000402006C622C426C29717050083D7E7BACDC332
S3158000403097170500938787C2804359E8635CA00879
S31580004040973700009387C7579C4363C5A708856742
S315800040507D1593870788F3B74730971705009387B1
S3158000406027AD16053E958347C5008544171705007D
S31580004070232697BE85E7130470FD9717050023AFA7
S3158000408007BC971705009387E7B49C43F3A747308F
S315800040902285B240224492444101828093F7870769
S315800040A02147638FE7008347E50013F7270011E771
S315800040B093E727002307F500C9B7130450FD75BFA2
S315800040C0EF10706F5DD99717050023AD97B875B758
S315800040D01D547DBF39546DBF171705000357C7AFF1
S315800040E0AA8759EF17170500130747B7184349EBF7
S315800040F0635BA000173700001307874C18433955B8
S315800041006358F70682803DED97170500938787BE33
S315800041109C430567130707887337473003C7C70073
S31580004120854617160500232BD6B2130570FD09EFB9
S315800041309717050023A407B297170500938787A9C9
S315800041409C43F3A74730828003C7E70013551700C7
S31580004150759B2387E7009717050023A107B097175C
S315800041600500938727A705899C43F3A7473082805C
S31580004170FD179607171505001305859BAA9751BF4E
S315800041801D558280395582809717050083D7C7A42D
S31580004190C5EB97170500938767AC9C43D5E36353BC
S315800041A0A00A973700009387A7419C4363CCA70852
S315800041B085677D1593870788F3B74730971705007E
S315800041C0938707971605AA9703C7C70085461716CC
S315800041D005002325D6A8098B130570FD09EF9717CF
S315800041E0050023AD07A6971705009387A79E9C43D6
S315800041F0F3A74730828041113E8506C6EF10F06CEA
S3158000420019ED9717050023AB07A497170500938729
S31580004210679C9C43F3A74730B24041018280EFE020
S315800042202F839717050023AB07A29717050093875F
S31580004230679A01459C43F3A74730B240410182808B
S315800042401D558280395582809717050083D7C79878
S31580004250D9C397170500938767A09C43ADEF635E2C
S31580004260A006973700009387A7359C4363C7A706A8
S315800042704111856706C622C47D1593870788F3B7E3
S315800042804730971705009387A78A1605AA9703C70D
S31580004290C70005449716050023A2869C098B130543
S315800042A070FD05E39717050023AA079A971705005F
S315800042B0938747929C43F3A74730B24022444101FB
S315800042C082803E85EF10706071DD9717050023AB05
S315800042D087980145C1BF1D5582803955828041111D
S315800042E006C622C49717050083D7078FFDE7971761
S315800042F005009387A79680436DE0635FA00097379C
S3158000430000009387E72B9C4363D9A70639542285FF
S31580004310B24022444101828075F997170500938740
S31580004320679D88438567938707882A87F3B74730D1
S3158000433085479716050023A3F6926308E50683470B
S31580004340C5009DE3130470FD9717050023A8079009
S3158000435097170500938707889C43F3A747302285E4
S31580004360B24022444101828013F7170021EF13F7F0
S31580004370470021C7130450FDC1BF7D15970705006F
S315800043809387077B16053E95971705009387879633
S315800043909843856793870788F3B74730854797168D
S315800043A0050023ADF68AE31CE5F897170500938789
S315800043B0A7939C43C9F71D5441BF93E74700230643
S315800043C0F50059B791472306F500EFE0FF9B19E109
S315800043D001449DBFEFD0DFE785BF1D5449B741112A
S315800043E006C622C49707050083D7077FC1EB9717B8
S315800043F005009387A786804351E06353A0089737CB
S3158000440000009387E71B9C4363CCA70685677D15D1
S3158000441093870788F3B747309707050093874771D7
S315800044201605AA9703C7C7008546171605002327D2
S31580004430D682137647001DC6137627001DC66D9B50
S315800044402386E7009717050023AA078097070500AC
S31580004450938747789C43F3A747302285B24022440E
S3158000446041018280130470FDF1BF3E852386D7000B
S31580004470EFE05F8B61D9EFD0BFDDE9B71D54F1BFA7
S315800044803954E1BF9707050083D70775D9EF97079A
S3158000449005009387A77C9C43C9EB971705009387F4
S315800044A0A7849C43D9C3634405080111856722CC40
S315800044B006CE26CA2A8493870788F3B7473097148F
S315800044C0050093842483884089472306F500854721
S315800044D0170705002324F778EFE01F8B17170500D1
S315800044E0130747829C400C43580023AA27003A852D
S315800044F0A2953AC0172700001307A7B33EC63AC451
S31580004500EFE0DFF8EFD0DFD49707050023A8077424
S31580004510970705009387076C02459C43F3A74730AE
S31580004520F2406244D244056182801D5582803D55A9
S315800045308280170705000357276A63170710170736
S3158000454005001307A771AA870843631F050E635CDE
S31580004550F004173700001307A70618436342F70ACB
S31580004560D5C1FD17170705001307875C9607BA970D
S315800045700567130707887337473003C7C700854623
S3158000458017060500232CD66C39E39707050023A769
S31580004590076C970705009387E763130570FD9C43B7
S315800045A0F3A747308280A9EFB1CD9707050093879F
S315800045B0677405679C43130707887337473003C7BB
S315800045C0C700854617060500232AD6685DDF98470B
S315800045D0584F45DF984B970605009386A6719442FF
S315800045E0D98D8CCB6382F6029707050023A80766D0
S315800045F0970705009387075E9C43F3A74730828021
S31580004600395582803D55828083C7E700918BE9DFEB
S31580004610970705009387476E9C4399E30145E9B761
S31580004620011106CE2AC6EFE03FC19707050023A7F2
S315800046300762970705009387E75932459C43F3A79E
S315800046404730F240056182801D558280170705003C
S3158000465003578758AA8755C31707050013070760AE
S31580004660084341ED635DF00817370000130747F5EF
S3158000467018436346F708D1C50567FD1713070788F2
S3158000468073374730170705001307874A9607BA9787
S3158000469003C7C7008546170605002321D65C19EF98
S315800046A0130570FD9707050023AA075A970705008B
S315800046B0938747529C43F3A7473082809847584F49
S315800046C065D3984B970605009386C6629442D98D2A
S315800046D08CCBE399F6FC83C7E600918BE1D79707ED
S315800046E00500938767619C4399C78547170705002F
S315800046F0232AF75645BF014575B71D558280395522
S3158000470082803D5582809707050083D7E74CA5EBCD
S315800047109707050093878754884335E18567938794
S315800047200788F3B74730970705009387A75C9C43B4
S3158000473005479706050023A3E6529847584F15C3A9
S3158000474003C7E7006D9B2387E7009707050023A72C
S315800047500750970705009387E7479C43F3A74730A1
S3158000476082809707050023AB074E9707050093873E
S315800047706746130570FD9C43F3A7473082801D551D
S3158000478082809707050083D72745CDE797070500E1
S315800047909387C74C884359ED856793870788F3B716
S315800047A04730970705009387E7549C43054797064C
S315800047B0050023A5E64A9847584F1DCB03C7E70057
S315800047C0944B136747002387E70099C69707050030
S315800047D0938787529C439DEB9707050023A0074844
S315800047E0970705009387073F9C43F3A7473082804E
S315800047F09707050023A40746970705009387873DFB
S31580004800130570FD9C43F3A747308280011106CEC5
S315800048102AC6EFE07FA29707050023A107449707E2
S3158000482005009387273B32459C43F3A74730F240E8
S31580004830056182801D558280970705009387874B87
S315800048409C43054599C703C5E700098113451500B3
S31580004850058982801707050003570738AA8769E309
S31580004860170705001307873F08435DE9635BF00080
S31580004870173700001307C7D41843635EF706395508
S315800048808280F5FF970705009387C74605679C4397
S31580004890130707887337473003C7C700854617064F
S315800048A00500232DD63A19EF9707050023A8073A66
S315800048B09707050093870732130570FD9C43F3A77E
S315800048C0473082809847584F65D303C7E700944B9B
S315800048D09377470093B7170085079CC19707050014
S315800048E023AE0736970705009387C72ED4C19C430E
S315800048F0F3A747308280FD17170705001307472364
S315800049009607BA970567130707887337473003C733
S31580004910C7008546170605002322D63451D75DB7D2
S315800049201D55828097370000938747C9904305C6F7
S315800049309707050093870719120617370000130794
S31580004940E7933E96544398C7DCC39CC3D4C7C1073C
S315800049503107E399C7FE82809707050083D7C7276B
S31580004960F1E7970705009387672F9C43E1E363513F
S31580004970A00C97370000938767C49C4363CAA70A35
S315800049807971856722D406D626D21304F5FF9387DC
S315800049900788F3B74730970405009384A41212045E
S315800049A0B3878400884305479706050023A8E62A2F
S315800049B0638CA702184198C35CC3EF10C05F0DE1FA
S315800049C09707050023AC072897070500938787205C
S315800049D09C43F3A74730B25022549254456182805B
S315800049E0EFD01F870145E9BFD8436385E702894732
S315800049F03EC0973700009387E7AC3EC493077009A3
S31580004A003EC68A8597370000938707AD01453EC825
S31580004A10EFC09FCE269418445C44130550FD18477A
S31580004A20E3F0E7FA85075CC4014559BF1D558280CE
S31580004A30395582809707050083D7071AE9CB9707F0
S31580004A4005009387A7219C43F9E36354A00C97370D
S31580004A5000009387A7B69C4363CDA70A79718567C3
S31580004A6022D406D626D24AD01304F5FF9387078828
S31580004A70F3B74730970405009384C4041204B387C0
S31580004A80840088430549170705002329271D638E5F
S31580004A90A702184198C35CC3EF10E05111C5970770
S31580004AA0050023A1271D01459707050023A8071A9E
S31580004AB097070500938707129C43F3A74730B250A8
S31580004AC022549254025945618280D8436385E70215
S31580004AD089473EC0973700009387C79E3EC4930799
S31580004AE070093EC68A85973700009387E79E014501
S31580004AF03EC8EFC07FC0269418445C44130550FD21
S31580004B001847E3F3E7FA85075CC4014571BF1D5575
S31580004B108280395582809707050083D7E70BD5EBCE
S31580004B2097070500938787139443C5E69707050083
S31580004B309387871B9C43D1CF635FA008973700007C
S31580004B409387C7A79C4363C8A70805679307F5FFA4
S31580004B50130707887337473017070500130787F64B
S31580004B6092073305F700584505469707050023A7A2
S31580004B70C70E05C37D1758C59707050023A0070EE6
S31580004B8097070500938707059C43F3A7473036852B
S31580004B908280170705001307E7151843011106CE13
S31580004BA0930720022306F7002C00EF10005BEFD05E
S31580004BB02FEA9707050023A3070A9707050093871F
S31580004BC06701A2469C43F3A74730F24036850561CC
S31580004BD082809D566DBFB9565DBF17070500035786
S31580004BE0A7FFAA873DEF1707050013072707084386
S31580004BF02DE9635AF006173700001307279C1843E0
S31580004C006343F7060567FD17130707887337473031
S31580004C1017070500130707EB9207BA97D84785460B
S31580004C2017060500232CD60219EF9707050023A740
S31580004C300702970705009387E7F91305E0FC9C4375
S31580004C40F3A7473082807D17D8C79707050023A72B
S31580004C500700970705009387E7F79C43F3A747303C
S31580004C6082801D558280395582809707050083D7BB
S31580004C70A7F6F9E397070500938747FE90434DEE25
S31580004C8097070500938747069C43DDC76358A00AAC
S31580004C9097370000938787929C4363C1A70AFD5785
S31580004CA063C0F50A05679307F5FF1307078873370F
S31580004CB04730170705001307E7E092073305F7002B
S31580004CC0584585469707050023AAD7F80DE31306AE
S31580004CD0E0FC8DE19707050023A207F897070500FA
S31580004CE0938747EF9C43F3A74730328582807D17B1
S31580004CF058C5CDB7170705001307C7FF1843797145
S31580004D0006D6930720022306F700AE8650086C006D
S31580004D10EF10804CEFD0CFD39707050023A007F480
S31580004D2097070500938707EB32469C43F3A74730E6
S31580004D30B2503285456182801D5645BF395675B75A
S31580004D403D5665B7411106C622C426C2970705009F
S31580004D5083D787E8BDEF97070500938727F08443BD
S31580004D60ADE86356A00697370000938727859C4356
S31580004D7063CFA70485671304F5FF93870788F3B786
S31580004D804730170505001305E5D312042A94854795
S31580004D902285170705002323F7ECEF10804B1C4470
S31580004DA0DC435CC415E19707050023A907EA97074A
S31580004DB00500938727E29C43F3A74730B2402244FD
S31580004DC02685924441018280EFD08FC8E9BFB954CD
S31580004DD0F5B79D54E5B7397106DE22DC26DA4AD866
S31580004DE04ED69707050083D727DFF9E39707050097
S31580004DF09387C7E683A90700639C090A6358A00ABC
S31580004E00972700009387877B9C4363C1A70A8567A2
S31580004E10AE841304F5FF93870788F3B747301709E5
S31580004E200500130929CA1204330789001C438546E5
S31580004E30170605002324D6E26381E70417070500D9
S31580004E40130707CF998F95871387170098C04A94C1
S31580004E505C4417070500232307E0DCC0970705009D
S31580004E60938747D79C43F3A74730F25062544E85C9
S31580004E70D2544259B25921618280D4430147E38793
S31580004E80D7FC89473EC0972700009387A7633EC417
S31580004E90930770093EC68A85972700009387C76364
S31580004EA001453EC8EFC05F854E874DB7B95975BF7E
S31580004EB09D5965BF9707050083D707D2A1E7970756
S31580004EC005009387A7D9984315EF85679387078849
S31580004ED0F3B7473097070500938787E29C4385465B
S31580004EE017060500232CD6D61CC19707050023A7D5
S31580004EF007D6970705009387E7CD9C43F3A74730EE
S31580004F003A8582801D57EDBF2A88732E403085678B
S31580004F1093870788F3B7473097070500938787DE1F
S31580004F2083A80700B7C7000203A7C7FF03A687FFAA
S31580004F3083A6C7FFE31AD7FEB7470002CC439C433C
S31580004F40930600020D8FB387F640B3B6F60033851D
S31580004F50C700B337F500158F3E9773234034B7C724
S31580004F6000021373030883A6C7FF83A587FF03A6E2
S31580004F70C7FFE39AC6FEB747000283AE47009C434D
S31580004F8073104E301306803EB388C802631E03003A
S31580004F90938888C11306803E3306A60201453D826A
S31580004FA046962320C800828013060002B307F64087
S31580004FB03336F600B386D641BE95B3B7F500918EEB
S31580004FC0BE96E3E7E6FCE317D7FCE3F5A5FCC9B795
S31580004FD0184141111C4526C2444722C406C62A846C
S31580004FE0BE94170700001307E7FE310518C840C8AE
S31580004FF0A685EFE0AFC904C4F32740F19387072065
S315800050003707008DB207BA9784439707050023A711
S3158000501007C4970705009387E7BB9C43F3A74730F0
S315800050201C409847C843029797070500938707C394
S315800050309C4399EB856793870788F3B74730854705
S3158000504017070500232CF7C0C204C180F32740F15F
S3158000505093870720B2402244B2073707008DBA975C
S3158000506084C39244410182809727000093878753A7
S315800050709C43C9C301114AC8139917003E9922CC93
S315800050800E0917040500130464A226CA52C456C228
S3158000509006CE4EC6972400009384041D2299854A25
S315800050A0170A0000130A0AF339A0232204006104B8
S315800050B0D104630824039C4004C0898BFDD783A94F
S315800050C004011305C40023225401CE8523284401FC
S315800050D040C8EFE0AFBB6104232834FFD104E31C52
S315800050E024FDF2406244D2444249B249224A924A5D
S315800050F0056182808280011106CE22CC26CA4AC8EA
S315800051004EC652C456C29707050083D7E7ACE1E77F
S3158000511097070500938787B483AA0700639D0A0AC9
S31580005120635DA00A972700009387C7479C4363C6A1
S31580005130A70A1304F5FF93191400338589000E0519
S3158000514017090500130989968567330AA90093878D
S315800051500788F3B7473003274A0085473105970606
S31580005160050023ADF6AEB304A90035E32322FA0089
S315800051704E940E042299032709009707050093870A
S3158000518067B89C43004B2685232A4A013E9497079D
S315800051900000938727E42328FA00A285EFE00FAF6B
S315800051A09707050023AC07AA2324890097070500E3
S315800051B0938747A29C43F3A74730F24062445685C3
S315800051C0D2444249B249224A924A05618280268562
S315800051D0EFE06FB871BF9D5ACDB7B95AF9BF41118B
S315800051E006C622C49707050083D7079FB5EF9707A2
S315800051F005009387A7A6804325E86359A0069727CD
S3158000520000009387273A9C4363C2A70685677D156E
S3158000521093870788F3B74730931715003E9517078E
S3158000522005001307A7880E05B307A700D4430546D4
S315800052309705050023A4C5A28DE29707050023AF35
S3158000524007A0970705009387E7989C43F3A7473005
S315800052502285B24022444101828031053A9523A2BB
S315800052600700EFE04FAFD1BF1D54DDB73954CDB73E
S31580005270411106C622C426C29707050083D7C79563
S31580005280D1E3970705009387679D804325EC635D8F
S31580005290A006972700009387E7309C4363C6A7063E
S315800052A085677D1593870788F3B747309317150071
S315800052B03E9517F704001307677F0E05B307A7000F
S315800052C0D443854717060500232AF6989DE29CC19C
S315800052D09707050023A40798970705009387878F6C
S315800052E09C43F3A747302285B24022449244410131
S315800052F08280894731059CC13A95AE84EFE02FB80C
S31580005300C8C0F9B71D54C5B73954F1BF411106C697
S3158000531022C423220500F32740F19387072037070D
S31580005320008DB207BA9780439707050023A8079296
S31580005330970705009387078A9C43F3A747301C414C
S315800053409847C843029797070500938727919C4300
S3158000535099EB856793870788F3B7473085471707A3
S315800053600500232DF78E42044180F32740F1938771
S315800053700720B2073707008DBA9780C3B240224410
S315800053804101828097270000938787219C438DC7A0
S3158000539093962700BE968A0697F704009387077828
S315800053A017270000130787EBBE9698C323A2070032
S315800053B0D1073107E39BD7FE8280011106CE22CC2E
S315800053C026CA4AC84EC652C456C25AC09707050056
S315800053D083D78780F1E3970705009387278803ABF8
S315800053E00700631B0B0A635BA00A9727000093875D
S315800053F0271B9C4363C4A70A63C4050A1304F5FFED
S3158000540093192400338589000A0517F904001309C6
S31580005410E97085672E8AB30AA90093870788F3B750
S31580005420473003A74A00854721059706050023A72D
S31580005430F682B304A90029EF23A2FA009707050094
S315800054409387478C8C434E940A0497070000938772
S3158000545027EC22992326F900D295268523285901FF
S31580005460EFE0CF8297F7040023AA077E97F7040020
S31580005470938747769C43F3A74730F24062445A8528
S31580005480D2444249B249224A924A024B05618280FD
S315800054902685EFE04F8C5DB71D5BC5B7395BF1BFE5
S315800054A03D5BE1BF011106CE22CC26CA4AC84EC654
S315800054B052C456C25AC097F7040083D7E771F1C326
S315800054C097F704009387877903AB0700631B0B0A62
S315800054D0635BA00A972700009387870C9C4363C46D
S315800054E0A70A63C4050A1304F5FF931924003385BC
S315800054F089000A0517F904001309496285672E8A0F
S31580005500B30AA90093870788F3B7473003A74A00F1
